{
  "contractName": "FlightSuretyData",
  "abi": [
    {
      "inputs": [],
      "payable": false,
      "stateMutability": "nonpayable",
      "type": "constructor",
      "signature": "constructor"
    },
    {
      "payable": true,
      "stateMutability": "payable",
      "type": "fallback"
    },
    {
      "anonymous": false,
      "inputs": [
        {
          "indexed": false,
          "name": "airlineAddress",
          "type": "address"
        }
      ],
      "name": "airlineRegistered",
      "type": "event",
      "signature": "0x2ef49f308764ebe6c1149ac59bf417810aa1d676e95227cc4638855c9eaf6c88"
    },
    {
      "anonymous": false,
      "inputs": [
        {
          "indexed": false,
          "name": "airlineAddress",
          "type": "address"
        }
      ],
      "name": "airlineFunded",
      "type": "event",
      "signature": "0x6a271d1fc1ff00cf80d9e67d144d2a4ea770a812df72ceed4f0083f76c568769"
    },
    {
      "anonymous": false,
      "inputs": [
        {
          "indexed": false,
          "name": "airline",
          "type": "address"
        },
        {
          "indexed": false,
          "name": "flight",
          "type": "string"
        },
        {
          "indexed": false,
          "name": "timestamp",
          "type": "uint256"
        },
        {
          "indexed": false,
          "name": "senderAddress",
          "type": "address"
        },
        {
          "indexed": false,
          "name": "insuranceAmount",
          "type": "uint256"
        }
      ],
      "name": "insurancePurchased",
      "type": "event",
      "signature": "0x2f5eaec89c448bc4325368dffdd31c08b8c499c39517098bc7f40bd7ded5dbc1"
    },
    {
      "anonymous": false,
      "inputs": [
        {
          "indexed": false,
          "name": "airline",
          "type": "address"
        },
        {
          "indexed": false,
          "name": "flight",
          "type": "string"
        },
        {
          "indexed": false,
          "name": "timestamp",
          "type": "uint256"
        },
        {
          "indexed": false,
          "name": "passenger",
          "type": "address"
        },
        {
          "indexed": false,
          "name": "amountCreditedToPassenger",
          "type": "uint256"
        }
      ],
      "name": "insuranceClaimed",
      "type": "event",
      "signature": "0x2818c3e0b02d5133bc40330d253069b2b6146dcaf3d449da257e7a895c36733e"
    },
    {
      "anonymous": false,
      "inputs": [
        {
          "indexed": false,
          "name": "senderAddress",
          "type": "address"
        },
        {
          "indexed": false,
          "name": "amount",
          "type": "uint256"
        }
      ],
      "name": "amountWithdrawn",
      "type": "event",
      "signature": "0xb2f5d4c0f2ba5229a12fd1382c4e4a7de3abb1a36c6e9f17e123d90a555b61b3"
    },
    {
      "constant": true,
      "inputs": [],
      "name": "isOperational",
      "outputs": [
        {
          "name": "",
          "type": "bool"
        }
      ],
      "payable": false,
      "stateMutability": "view",
      "type": "function",
      "signature": "0xcd905dff"
    },
    {
      "constant": false,
      "inputs": [
        {
          "name": "mode",
          "type": "bool"
        }
      ],
      "name": "setOperatingStatus",
      "outputs": [],
      "payable": false,
      "stateMutability": "nonpayable",
      "type": "function",
      "signature": "0x110466ed"
    },
    {
      "constant": true,
      "inputs": [
        {
          "name": "newAirline",
          "type": "address"
        }
      ],
      "name": "getAirlineVotes",
      "outputs": [
        {
          "name": "",
          "type": "address[]"
        }
      ],
      "payable": false,
      "stateMutability": "view",
      "type": "function",
      "signature": "0x6d47c815"
    },
    {
      "constant": false,
      "inputs": [
        {
          "name": "newAirline",
          "type": "address"
        },
        {
          "name": "senderAddress",
          "type": "address"
        }
      ],
      "name": "addAirlineVotes",
      "outputs": [
        {
          "name": "",
          "type": "address[]"
        }
      ],
      "payable": false,
      "stateMutability": "nonpayable",
      "type": "function",
      "signature": "0xe5829e37"
    },
    {
      "constant": true,
      "inputs": [
        {
          "name": "newAirline",
          "type": "address"
        },
        {
          "name": "senderAddress",
          "type": "address"
        }
      ],
      "name": "isAirlineVoted",
      "outputs": [
        {
          "name": "",
          "type": "bool"
        }
      ],
      "payable": false,
      "stateMutability": "view",
      "type": "function",
      "signature": "0xe3b7d37f"
    },
    {
      "constant": false,
      "inputs": [
        {
          "name": "newAirline",
          "type": "address"
        }
      ],
      "name": "registerAirline",
      "outputs": [],
      "payable": false,
      "stateMutability": "nonpayable",
      "type": "function",
      "signature": "0xbdfd9877"
    },
    {
      "constant": true,
      "inputs": [
        {
          "name": "newAirline",
          "type": "address"
        }
      ],
      "name": "isAirlineRegistered",
      "outputs": [
        {
          "name": "",
          "type": "bool"
        }
      ],
      "payable": false,
      "stateMutability": "view",
      "type": "function",
      "signature": "0x010c5c97"
    },
    {
      "constant": false,
      "inputs": [
        {
          "name": "airlineAddress",
          "type": "address"
        }
      ],
      "name": "activateAirline",
      "outputs": [],
      "payable": true,
      "stateMutability": "payable",
      "type": "function",
      "signature": "0x34ce6690"
    },
    {
      "constant": true,
      "inputs": [
        {
          "name": "airlineAddress",
          "type": "address"
        }
      ],
      "name": "isAirlineActivated",
      "outputs": [
        {
          "name": "",
          "type": "bool"
        }
      ],
      "payable": false,
      "stateMutability": "view",
      "type": "function",
      "signature": "0x3ad3d6c4"
    },
    {
      "constant": true,
      "inputs": [],
      "name": "getRegisteredAirlines",
      "outputs": [
        {
          "name": "",
          "type": "address[]"
        }
      ],
      "payable": false,
      "stateMutability": "view",
      "type": "function",
      "signature": "0xc23bcf09"
    },
    {
      "constant": true,
      "inputs": [],
      "name": "getActiveAirlines",
      "outputs": [
        {
          "name": "",
          "type": "address[]"
        }
      ],
      "payable": false,
      "stateMutability": "view",
      "type": "function",
      "signature": "0xfd4d02a4"
    },
    {
      "constant": false,
      "inputs": [
        {
          "name": "airline",
          "type": "address"
        },
        {
          "name": "flight",
          "type": "string"
        },
        {
          "name": "timestamp",
          "type": "uint256"
        },
        {
          "name": "passenger",
          "type": "address"
        },
        {
          "name": "insuranceAmount",
          "type": "uint256"
        }
      ],
      "name": "buyInsurance",
      "outputs": [],
      "payable": true,
      "stateMutability": "payable",
      "type": "function",
      "signature": "0x869d7b76"
    },
    {
      "constant": false,
      "inputs": [
        {
          "name": "airline",
          "type": "address"
        },
        {
          "name": "flight",
          "type": "string"
        },
        {
          "name": "timestamp",
          "type": "uint256"
        },
        {
          "name": "airlineAddress",
          "type": "address"
        },
        {
          "name": "passenger",
          "type": "address"
        }
      ],
      "name": "claimInsuranceAmount",
      "outputs": [],
      "payable": false,
      "stateMutability": "nonpayable",
      "type": "function",
      "signature": "0xb727bd21"
    },
    {
      "constant": false,
      "inputs": [
        {
          "name": "senderAddress",
          "type": "address"
        }
      ],
      "name": "withdrawAmount",
      "outputs": [],
      "payable": true,
      "stateMutability": "payable",
      "type": "function",
      "signature": "0x4f420151"
    },
    {
      "constant": false,
      "inputs": [
        {
          "name": "senderAddress",
          "type": "address"
        }
      ],
      "name": "fund",
      "outputs": [],
      "payable": true,
      "stateMutability": "payable",
      "type": "function",
      "signature": "0x23024408"
    }
  ],
  "bytecode": "0x60806040526001600060146101000a81548160ff02191690831515021790555034801561002b57600080fd5b50336000806101000a81548173ffffffffffffffffffffffffffffffffffffffff021916908373ffffffffffffffffffffffffffffffffffffffff16021790555060023390806001815401808255809150509060018203906000526020600020016000909192909190916101000a81548173ffffffffffffffffffffffffffffffffffffffff021916908373ffffffffffffffffffffffffffffffffffffffff160217905550506000600460003373ffffffffffffffffffffffffffffffffffffffff1673ffffffffffffffffffffffffffffffffffffffff16815260200190815260200160002060006101000a81548160ff02191690831515021790555060033390806001815401808255809150509060018203906000526020600020016000909192909190916101000a81548173ffffffffffffffffffffffffffffffffffffffff021916908373ffffffffffffffffffffffffffffffffffffffff160217905550506124278061019f6000396000f3006080604052600436106100db576000357c0100000000000000000000000000000000000000000000000000000000900463ffffffff168063010c5c97146100e6578063110466ed14610141578063230244081461017057806334ce6690146101a65780633ad3d6c4146101dc5780634f420151146102375780636d47c8151461026d578063869d7b7614610305578063b727bd2114610387578063bdfd98771461042c578063c23bcf091461046f578063cd905dff146104db578063e3b7d37f1461050a578063e5829e3714610585578063fd4d02a41461063d575b6100e4336106a9565b005b3480156100f257600080fd5b50610127600480360381019080803573ffffffffffffffffffffffffffffffffffffffff169060200190929190505050610741565b604051808215151515815260200191505060405180910390f35b34801561014d57600080fd5b5061016e60048036038101908080351515906020019092919050505061088e565b005b6101a4600480360381019080803573ffffffffffffffffffffffffffffffffffffffff1690602001909291905050506106a9565b005b6101da600480360381019080803573ffffffffffffffffffffffffffffffffffffffff169060200190929190505050610a20565b005b3480156101e857600080fd5b5061021d600480360381019080803573ffffffffffffffffffffffffffffffffffffffff169060200190929190505050610bf7565b604051808215151515815260200191505060405180910390f35b61026b600480360381019080803573ffffffffffffffffffffffffffffffffffffffff169060200190929190505050610cf6565b005b34801561027957600080fd5b506102ae600480360381019080803573ffffffffffffffffffffffffffffffffffffffff169060200190929190505050610f11565b6040518080602001828103825283818151815260200191508051906020019060200280838360005b838110156102f15780820151818401526020810190506102d6565b505050509050019250505060405180910390f35b610385600480360381019080803573ffffffffffffffffffffffffffffffffffffffff16906020019092919080359060200190820180359060200191909192939192939080359060200190929190803573ffffffffffffffffffffffffffffffffffffffff16906020019092919080359060200190929190505050611088565b005b34801561039357600080fd5b5061042a600480360381019080803573ffffffffffffffffffffffffffffffffffffffff16906020019092919080359060200190820180359060200191909192939192939080359060200190929190803573ffffffffffffffffffffffffffffffffffffffff169060200190929190803573ffffffffffffffffffffffffffffffffffffffff16906020019092919050505061147c565b005b34801561043857600080fd5b5061046d600480360381019080803573ffffffffffffffffffffffffffffffffffffffff169060200190929190505050611ae2565b005b34801561047b57600080fd5b50610484611cb0565b6040518080602001828103825283818151815260200191508051906020019060200280838360005b838110156104c75780820151818401526020810190506104ac565b505050509050019250505060405180910390f35b3480156104e757600080fd5b506104f0611de8565b604051808215151515815260200191505060405180910390f35b34801561051657600080fd5b5061056b600480360381019080803573ffffffffffffffffffffffffffffffffffffffff169060200190929190803573ffffffffffffffffffffffffffffffffffffffff169060200190929190505050611dfe565b604051808215151515815260200191505060405180910390f35b34801561059157600080fd5b506105e6600480360381019080803573ffffffffffffffffffffffffffffffffffffffff169060200190929190803573ffffffffffffffffffffffffffffffffffffffff169060200190929190505050611fc6565b6040518080602001828103825283818151815260200191508051906020019060200280838360005b8381101561062957808201518184015260208101905061060e565b505050509050019250505060405180910390f35b34801561064957600080fd5b5061065261211b565b6040518080602001828103825283818151815260200191508051906020019060200280838360005b8381101561069557808201518184015260208101905061067a565b505050509050019250505060405180910390f35b6106fb34600160008473ffffffffffffffffffffffffffffffffffffffff1673ffffffffffffffffffffffffffffffffffffffff1681526020019081526020016000205461225390919063ffffffff16565b600160008373ffffffffffffffffffffffffffffffffffffffff1673ffffffffffffffffffffffffffffffffffffffff1681526020019081526020016000208190555050565b60008060008060149054906101000a900460ff1615156107ef576040517f08c379a00000000000000000000000000000000000000000000000000000000081526004018080602001828103825260258152602001807f436f6e74726163742069732063757272656e746c79206e6f74206f706572617481526020017f696f6e616c00000000000000000000000000000000000000000000000000000081525060400191505060405180910390fd5b60009150600090505b600280549050811015610884578373ffffffffffffffffffffffffffffffffffffffff1660028281548110151561082b57fe5b9060005260206000200160009054906101000a900473ffffffffffffffffffffffffffffffffffffffff1673ffffffffffffffffffffffffffffffffffffffff16141561087757600191505b80806001019150506107f8565b8192505050919050565b6000809054906101000a900473ffffffffffffffffffffffffffffffffffffffff1673ffffffffffffffffffffffffffffffffffffffff163373ffffffffffffffffffffffffffffffffffffffff16141515610952576040517f08c379a000000000000000000000000000000000000000000000000000000000815260040180806020018281038252601c8152602001807f43616c6c6572206973206e6f7420636f6e7472616374206f776e65720000000081525060200191505060405180910390fd5b600060149054906101000a900460ff16151581151514151515610a03576040517f08c379a000000000000000000000000000000000000000000000000000000000815260040180806020018281038252602e8152602001807f4e6577206d6f64652073686f756c6420626520646966666572656e742066726f81526020017f6d2063757272656e74206d6f646500000000000000000000000000000000000081525060400191505060405180910390fd5b80600060146101000a81548160ff02191690831515021790555050565b600060149054906101000a900460ff161515610aca576040517f08c379a00000000000000000000000000000000000000000000000000000000081526004018080602001828103825260258152602001807f436f6e74726163742069732063757272656e746c79206e6f74206f706572617481526020017f696f6e616c00000000000000000000000000000000000000000000000000000081525060400191505060405180910390fd5b6001600460008373ffffffffffffffffffffffffffffffffffffffff1673ffffffffffffffffffffffffffffffffffffffff16815260200190815260200160002060006101000a81548160ff02191690831515021790555060038190806001815401808255809150509060018203906000526020600020016000909192909190916101000a81548173ffffffffffffffffffffffffffffffffffffffff021916908373ffffffffffffffffffffffffffffffffffffffff16021790555050610b91816106a9565b7f6a271d1fc1ff00cf80d9e67d144d2a4ea770a812df72ceed4f0083f76c56876981604051808273ffffffffffffffffffffffffffffffffffffffff1673ffffffffffffffffffffffffffffffffffffffff16815260200191505060405180910390a150565b60008060149054906101000a900460ff161515610ca2576040517f08c379a00000000000000000000000000000000000000000000000000000000081526004018080602001828103825260258152602001807f436f6e74726163742069732063757272656e746c79206e6f74206f706572617481526020017f696f6e616c00000000000000000000000000000000000000000000000000000081525060400191505060405180910390fd5b600460008373ffffffffffffffffffffffffffffffffffffffff1673ffffffffffffffffffffffffffffffffffffffff16815260200190815260200160002060009054906101000a900460ff169050919050565b600080600160008473ffffffffffffffffffffffffffffffffffffffff1673ffffffffffffffffffffffffffffffffffffffff16815260200190815260200160002054111515610dd4576040517f08c379a000000000000000000000000000000000000000000000000000000000815260040180806020018281038252602c8152602001807f5468657265206973206e6f2062616c616e636520617661696c61626c6520696e81526020017f20796f75722077616c6c6574000000000000000000000000000000000000000081525060400191505060405180910390fd5b600160008373ffffffffffffffffffffffffffffffffffffffff1673ffffffffffffffffffffffffffffffffffffffff1681526020019081526020016000205490506000600160008473ffffffffffffffffffffffffffffffffffffffff1673ffffffffffffffffffffffffffffffffffffffff168152602001908152602001600020819055508173ffffffffffffffffffffffffffffffffffffffff166108fc829081150290604051600060405180830381858888f19350505050158015610ea1573d6000803e3d6000fd5b507fb2f5d4c0f2ba5229a12fd1382c4e4a7de3abb1a36c6e9f17e123d90a555b61b38282604051808373ffffffffffffffffffffffffffffffffffffffff1673ffffffffffffffffffffffffffffffffffffffff1681526020018281526020019250505060405180910390a15050565b6060600060149054906101000a900460ff161515610fbd576040517f08c379a00000000000000000000000000000000000000000000000000000000081526004018080602001828103825260258152602001807f436f6e74726163742069732063757272656e746c79206e6f74206f706572617481526020017f696f6e616c00000000000000000000000000000000000000000000000000000081525060400191505060405180910390fd5b600560008373ffffffffffffffffffffffffffffffffffffffff1673ffffffffffffffffffffffffffffffffffffffff16815260200190815260200160002080548060200260200160405190810160405280929190818152602001828054801561107c57602002820191906000526020600020905b8160009054906101000a900473ffffffffffffffffffffffffffffffffffffffff1673ffffffffffffffffffffffffffffffffffffffff1681526020019060010190808311611032575b50505050509050919050565b600080600060149054906101000a900460ff161515611135576040517f08c379a00000000000000000000000000000000000000000000000000000000081526004018080602001828103825260258152602001807f436f6e74726163742069732063757272656e746c79206e6f74206f706572617481526020017f696f6e616c00000000000000000000000000000000000000000000000000000081525060400191505060405180910390fd5b6111728888888080601f0160208091040260200160405190810160405280939291908181526020018383808284378201915050505050508761226f565b915081846040516020018083600019166000191681526020018273ffffffffffffffffffffffffffffffffffffffff1673ffffffffffffffffffffffffffffffffffffffff166c01000000000000000000000000028152601401925050506040516020818303038152906040526040518082805190602001908083835b60208310151561121457805182526020820191506020810190506020830392506111ef565b6001836020036101000a03801982511681845116808217855250505050505090500191505060405180910390209050608060405190810160405280826000191681526020018573ffffffffffffffffffffffffffffffffffffffff168152602001848152602001600015158152506006600083600019166000191681526020019081526020016000206000820151816000019060001916905560208201518160010160006101000a81548173ffffffffffffffffffffffffffffffffffffffff021916908373ffffffffffffffffffffffffffffffffffffffff1602179055506040820151816002015560608201518160030160006101000a81548160ff0219169083151502179055509050506007600083600019166000191681526020019081526020016000208490806001815401808255809150509060018203906000526020600020016000909192909190916101000a81548173ffffffffffffffffffffffffffffffffffffffff021916908373ffffffffffffffffffffffffffffffffffffffff160217905550506113a9886106a9565b7f2f5eaec89c448bc4325368dffdd31c08b8c499c39517098bc7f40bd7ded5dbc1888888888888604051808773ffffffffffffffffffffffffffffffffffffffff1673ffffffffffffffffffffffffffffffffffffffff168152602001806020018581526020018473ffffffffffffffffffffffffffffffffffffffff1673ffffffffffffffffffffffffffffffffffffffff1681526020018381526020018281038252878782818152602001925080828437820191505097505050505050505060405180910390a15050505050505050565b600080600080600060149054906101000a900460ff16151561152c576040517f08c379a00000000000000000000000000000000000000000000000000000000081526004018080602001828103825260258152602001807f436f6e74726163742069732063757272656e746c79206e6f74206f706572617481526020017f696f6e616c00000000000000000000000000000000000000000000000000000081525060400191505060405180910390fd5b6115698a8a8a8080601f0160208091040260200160405190810160405280939291908181526020018383808284378201915050505050508961226f565b935083856040516020018083600019166000191681526020018273ffffffffffffffffffffffffffffffffffffffff1673ffffffffffffffffffffffffffffffffffffffff166c01000000000000000000000000028152601401925050506040516020818303038152906040526040518082805190602001908083835b60208310151561160b57805182526020820191506020810190506020830392506115e6565b6001836020036101000a03801982511681845116808217855250505050505090500191505060405180910390209250826000191660066000856000191660001916815260200190815260200160002060000154600019161415156116fd576040517f08c379a00000000000000000000000000000000000000000000000000000000081526004018080602001828103825260358152602001807f596f752068617665206e6f74207075726368617365642074686520696e73757281526020017f616e636520666f72207468697320666c696768742e000000000000000000000081525060400191505060405180910390fd5b60066000846000191660001916815260200190815260200160002060030160009054906101000a900460ff161515156117c4576040517f08c379a000000000000000000000000000000000000000000000000000000000815260040180806020018281038252602e8152602001807f596f75206861766520616c726561647920636c61696d65642074686520696e7381526020017f7572616e636520616d6f756e742e00000000000000000000000000000000000081525060400191505060405180910390fd5b600160008773ffffffffffffffffffffffffffffffffffffffff1673ffffffffffffffffffffffffffffffffffffffff16815260200190815260200160002054915061184b600a61183d600f6006600088600019166000191681526020019081526020016000206002015461239490919063ffffffff16565b6123cc90919063ffffffff16565b90508082101515156118eb576040517f08c379a00000000000000000000000000000000000000000000000000000000081526004018080602001828103825260368152602001807f4169726c696e6520446f65736e2774206861766520656e6f7567682066756e6481526020017f732e20506c6561736520636865636b206c617465722e0000000000000000000081525060400191505060405180910390fd5b600160066000856000191660001916815260200190815260200160002060030160006101000a81548160ff02191690831515021790555061193581836123e290919063ffffffff16565b600160008873ffffffffffffffffffffffffffffffffffffffff1673ffffffffffffffffffffffffffffffffffffffff168152602001908152602001600020819055506119ca81600160008873ffffffffffffffffffffffffffffffffffffffff1673ffffffffffffffffffffffffffffffffffffffff1681526020019081526020016000205461225390919063ffffffff16565b600160008773ffffffffffffffffffffffffffffffffffffffff1673ffffffffffffffffffffffffffffffffffffffff168152602001908152602001600020819055507f2818c3e0b02d5133bc40330d253069b2b6146dcaf3d449da257e7a895c36733e8a8a8a8a8986604051808773ffffffffffffffffffffffffffffffffffffffff1673ffffffffffffffffffffffffffffffffffffffff168152602001806020018581526020018473ffffffffffffffffffffffffffffffffffffffff1673ffffffffffffffffffffffffffffffffffffffff1681526020018381526020018281038252878782818152602001925080828437820191505097505050505050505060405180910390a150505050505050505050565b600060149054906101000a900460ff161515611b8c576040517f08c379a00000000000000000000000000000000000000000000000000000000081526004018080602001828103825260258152602001807f436f6e74726163742069732063757272656e746c79206e6f74206f706572617481526020017f696f6e616c00000000000000000000000000000000000000000000000000000081525060400191505060405180910390fd5b60028190806001815401808255809150509060018203906000526020600020016000909192909190916101000a81548173ffffffffffffffffffffffffffffffffffffffff021916908373ffffffffffffffffffffffffffffffffffffffff160217905550506000600460008373ffffffffffffffffffffffffffffffffffffffff1673ffffffffffffffffffffffffffffffffffffffff16815260200190815260200160002060006101000a81548160ff0219169083151502179055507f2ef49f308764ebe6c1149ac59bf417810aa1d676e95227cc4638855c9eaf6c8881604051808273ffffffffffffffffffffffffffffffffffffffff1673ffffffffffffffffffffffffffffffffffffffff16815260200191505060405180910390a150565b6060600060149054906101000a900460ff161515611d5c576040517f08c379a00000000000000000000000000000000000000000000000000000000081526004018080602001828103825260258152602001807f436f6e74726163742069732063757272656e746c79206e6f74206f706572617481526020017f696f6e616c00000000000000000000000000000000000000000000000000000081525060400191505060405180910390fd5b6002805480602002602001604051908101604052809291908181526020018280548015611dde57602002820191906000526020600020905b8160009054906101000a900473ffffffffffffffffffffffffffffffffffffffff1673ffffffffffffffffffffffffffffffffffffffff1681526020019060010190808311611d94575b5050505050905090565b60008060149054906101000a900460ff16905090565b60008060008060149054906101000a900460ff161515611eac576040517f08c379a00000000000000000000000000000000000000000000000000000000081526004018080602001828103825260258152602001807f436f6e74726163742069732063757272656e746c79206e6f74206f706572617481526020017f696f6e616c00000000000000000000000000000000000000000000000000000081525060400191505060405180910390fd5b60009150600090505b600560008673ffffffffffffffffffffffffffffffffffffffff1673ffffffffffffffffffffffffffffffffffffffff16815260200190815260200160002080549050811015611fbb578373ffffffffffffffffffffffffffffffffffffffff16600560008773ffffffffffffffffffffffffffffffffffffffff1673ffffffffffffffffffffffffffffffffffffffff16815260200190815260200160002082815481101515611f6257fe5b9060005260206000200160009054906101000a900473ffffffffffffffffffffffffffffffffffffffff1673ffffffffffffffffffffffffffffffffffffffff161415611fae57600191505b8080600101915050611eb5565b819250505092915050565b6060600060149054906101000a900460ff161515612072576040517f08c379a00000000000000000000000000000000000000000000000000000000081526004018080602001828103825260258152602001807f436f6e74726163742069732063757272656e746c79206e6f74206f706572617481526020017f696f6e616c00000000000000000000000000000000000000000000000000000081525060400191505060405180910390fd5b600560008473ffffffffffffffffffffffffffffffffffffffff1673ffffffffffffffffffffffffffffffffffffffff1681526020019081526020016000208290806001815401808255809150509060018203906000526020600020016000909192909190916101000a81548173ffffffffffffffffffffffffffffffffffffffff021916908373ffffffffffffffffffffffffffffffffffffffff1602179055505092915050565b6060600060149054906101000a900460ff1615156121c7576040517f08c379a00000000000000000000000000000000000000000000000000000000081526004018080602001828103825260258152602001807f436f6e74726163742069732063757272656e746c79206e6f74206f706572617481526020017f696f6e616c00000000000000000000000000000000000000000000000000000081525060400191505060405180910390fd5b600380548060200260200160405190810160405280929190818152602001828054801561224957602002820191906000526020600020905b8160009054906101000a900473ffffffffffffffffffffffffffffffffffffffff1673ffffffffffffffffffffffffffffffffffffffff16815260200190600101908083116121ff575b5050505050905090565b6000818301905082811015151561226657fe5b80905092915050565b6000838383604051602001808473ffffffffffffffffffffffffffffffffffffffff1673ffffffffffffffffffffffffffffffffffffffff166c0100000000000000000000000002815260140183805190602001908083835b6020831015156122ed57805182526020820191506020810190506020830392506122c8565b6001836020036101000a03801982511681845116808217855250505050505090500182815260200193505050506040516020818303038152906040526040518082805190602001908083835b60208310151561235e5780518252602082019150602081019050602083039250612339565b6001836020036101000a038019825116818451168082178552505050505050905001915050604051809103902090509392505050565b6000808314156123a757600090506123c6565b81830290508183828115156123b857fe5b041415156123c257fe5b8090505b92915050565b600081838115156123d957fe5b04905092915050565b60008282111515156123f057fe5b8183039050929150505600a165627a7a72305820ce782d27c3f1e2398007a0ea7f2d966e2b4d279f6dad2ce265293154297347ac0029",
  "source": "pragma solidity ^0.4.24;\n\nimport \"../node_modules/openzeppelin-solidity/contracts/math/SafeMath.sol\";\n\ncontract FlightSuretyData {\n    using SafeMath for uint256;\n\n    /********************************************************************************************/\n    /*                                       DATA VARIABLES                                     */\n    /********************************************************************************************/\n\n    address private contractOwner;                                      // Account used to deploy contract\n    bool private operational = true;                                   // Blocks all state changes throughout the contract if false\n    mapping(address => uint256) private walletBalance;\n    address[] private airlines;\n    address[] private activeAirlines;\n    mapping(address => bool) private activatedAirlines;\n    mapping(address => address[]) private airlineVotes;\n    struct Insurance {\n        bytes32 id;\n        address owner;\n        uint256 amount;\n        bool isRefunded;\n    }\n    mapping(bytes32 => Insurance) private flightInsuranceDetails;\n    mapping(bytes32 => address[]) private flightInsurances;\n\n    event airlineRegistered(address airlineAddress);\n    event airlineFunded(address airlineAddress);\n    event insurancePurchased(address airline, string flight, uint256 timestamp, address senderAddress, uint256 insuranceAmount);\n    event insuranceClaimed(address airline, string flight, uint256 timestamp, address passenger, uint256 amountCreditedToPassenger);\n    event amountWithdrawn(address senderAddress, uint amount);\n\n\n    /********************************************************************************************/\n    /*                                       EVENT DEFINITIONS                                  */\n    /********************************************************************************************/\n\n\n    /**\n    * @dev Constructor\n    *      The deploying account becomes contractOwner\n    */\n    constructor() public {\n        contractOwner = msg.sender;\n        airlines.push(msg.sender);\n        activatedAirlines[msg.sender] = false;\n        activeAirlines.push(msg.sender);\n    }\n\n    /********************************************************************************************/\n    /*                                       FUNCTION MODIFIERS                                 */\n    /********************************************************************************************/\n\n    // Modifiers help avoid duplication of code. They are typically used to validate something\n    // before a function is allowed to be executed.\n\n    /**\n    * @dev Modifier that requires the \"operational\" boolean variable to be \"true\"\n    *      This is used on all state changing functions to pause the contract in \n    *      the event there is an issue that needs to be fixed\n    */\n    modifier requireIsOperational() {\n        require(operational, \"Contract is currently not operational\");\n        _;\n        // All modifiers require an \"_\" which indicates where the function body will be added\n    }\n\n    /**\n    * @dev Modifier that requires the \"ContractOwner\" account to be the function caller\n    */\n    modifier requireContractOwner() {\n        require(msg.sender == contractOwner, \"Caller is not contract owner\");\n        _;\n    }\n\n    /********************************************************************************************/\n    /*                                       UTILITY FUNCTIONS                                  */\n    /********************************************************************************************/\n\n    /**\n    * @dev Get operating status of contract\n    *\n    * @return A bool that is the current operating status\n    */\n    function isOperational() external view returns (bool) {\n        return operational;\n    }\n\n    /**\n    * @dev Sets contract operations on/off\n    *\n    * When operational mode is disabled, all write transactions except for this one will fail\n    */\n    function setOperatingStatus(bool mode) external requireContractOwner {\n        require(mode != operational, \"New mode should be different from current mode\");\n        operational = mode;\n    }\n\n    /********************************************************************************************/\n    /*                                     SMART CONTRACT FUNCTIONS                             */\n    /********************************************************************************************/\n\n    /**\n     * @dev Get the list of airline votes\n     *      Can only be called from FlightSuretyApp contract\n     *\n     */\n    function getAirlineVotes(address newAirline) external view requireIsOperational returns(address[]) {\n        return airlineVotes[newAirline];\n    }\n\n    /**\n     * @dev Get the list of airline votes\n     *      Can only be called from FlightSuretyApp contract\n     *\n     */\n    function addAirlineVotes(address newAirline, address senderAddress) external requireIsOperational returns(address[]) {\n        airlineVotes[newAirline].push(senderAddress);\n    }\n\n    /**\n     * @dev check if the airline has voted\n     *      Can only be called from FlightSuretyApp contract\n     *\n     */\n    function isAirlineVoted(address newAirline, address senderAddress) external view requireIsOperational returns (bool) {\n        bool isAlreadyVoted = false;\n        for(uint i = 0; i < airlineVotes[newAirline].length; i++) {\n            if(airlineVotes[newAirline][i] == senderAddress) {\n                isAlreadyVoted = true;\n            }\n        }\n        return isAlreadyVoted;\n    }\n\n    /**\n     * @dev Add an airline to the registration queue\n     *      Can only be called from FlightSuretyApp contract\n     *\n     */\n    function registerAirline(address newAirline) external requireIsOperational {\n        airlines.push(newAirline);\n        activatedAirlines[newAirline] = false;\n        emit airlineRegistered(newAirline);\n    }\n\n    function isAirlineRegistered(address newAirline) external view requireIsOperational returns(bool) {\n        bool isRegistered = false;\n        for(uint i = 0; i < airlines.length; i++) {\n            if(airlines[i] == newAirline) {\n                isRegistered = true;\n            }\n        }\n        return isRegistered;\n    }\n\n    /**\n     * @dev Activate an airline\n     *      Can only be called from FlightSuretyApp contract\n     *\n     */\n    function activateAirline(address airlineAddress) external payable requireIsOperational {\n        activatedAirlines[airlineAddress] = true;\n        activeAirlines.push(airlineAddress);\n        fund(airlineAddress);\n        emit airlineFunded(airlineAddress);\n    }\n\n    /**\n     * @dev Check if the airline is funded/activated\n     *      Can only be called from FlightSuretyApp contract\n     *\n     */\n    function isAirlineActivated(address airlineAddress) external view requireIsOperational returns(bool) {\n        return activatedAirlines[airlineAddress];\n    }\n\n    /**\n     * @dev Get the list of registered airlines\n     *      Can only be called from FlightSuretyApp contract\n     *\n     */\n    function getRegisteredAirlines() external view requireIsOperational returns(address[]) {\n        return airlines;\n    }\n\n    /**\n     * @dev Get the list of activated/funded airlines\n     *      Can only be called from FlightSuretyApp contract\n     *\n     */\n    function getActiveAirlines() external view requireIsOperational returns(address[]) {\n        return activeAirlines;\n    }\n\n    /**\n     * @dev Buy insurance for a flight\n     *\n     */\n    function buyInsurance(address airline, string flight, uint256 timestamp, address passenger, uint256 insuranceAmount) external payable requireIsOperational {\n        bytes32 flightKey = getFlightKey(airline, flight, timestamp);\n        bytes32 insuranceKey = keccak256(abi.encodePacked(flightKey, passenger));\n        flightInsuranceDetails[insuranceKey] = Insurance({\n            id: insuranceKey,\n            owner: passenger,\n            amount: insuranceAmount,\n            isRefunded: false\n        });\n        flightInsurances[flightKey].push(passenger);\n        fund(airline);\n        emit insurancePurchased(airline, flight, timestamp, passenger, insuranceAmount);\n    }\n\n    /**\n     *  @dev Claim the insurance amount for a flight\n    */\n    function claimInsuranceAmount(address airline, string flight, uint256 timestamp, address airlineAddress, address passenger) external requireIsOperational {\n        bytes32 flightKey = getFlightKey(airline, flight, timestamp);\n        bytes32 insuranceKey = keccak256(abi.encodePacked(flightKey, passenger));\n        require(flightInsuranceDetails[insuranceKey].id == insuranceKey, \"You have not purchased the insurance for this flight.\");\n        require(!flightInsuranceDetails[insuranceKey].isRefunded, \"You have already claimed the insurance amount.\");\n        uint256 currentAirlineBalance = walletBalance[airlineAddress];\n        uint256 amountCreditedToPassenger = flightInsuranceDetails[insuranceKey].amount.mul(15).div(10);\n        require(currentAirlineBalance >= amountCreditedToPassenger, \"Airline Doesn't have enough funds. Please check later.\");\n        flightInsuranceDetails[insuranceKey].isRefunded = true;\n        walletBalance[airlineAddress] = currentAirlineBalance.sub(amountCreditedToPassenger);\n        walletBalance[passenger] = walletBalance[passenger].add(amountCreditedToPassenger);\n        emit insuranceClaimed(airline, flight, timestamp, passenger, amountCreditedToPassenger);\n    }\n\n\n    /**\n     *  @dev Transfers balance to their wallet\n     *\n    */\n    function withdrawAmount(address senderAddress) external payable {\n        require(walletBalance[senderAddress] > 0, \"There is no balance available in your wallet\");\n        uint256 withdrawAmount = walletBalance[senderAddress];\n        walletBalance[senderAddress] = 0;\n        senderAddress.transfer(withdrawAmount);\n        emit amountWithdrawn(senderAddress, withdrawAmount);\n    }\n\n    /**\n     * @dev Initial funding for the insurance. Unless there are too many delayed flights\n     *      resulting in insurance payouts, the contract should be self-sustaining\n     *\n     */\n    function fund(address senderAddress) public payable {\n        walletBalance[senderAddress] = walletBalance[senderAddress].add(msg.value);\n    }\n\n    function getFlightKey(address airline, string memory flight, uint256 timestamp) pure internal returns (bytes32) {\n        return keccak256(abi.encodePacked(airline, flight, timestamp));\n    }\n\n    /**\n    * @dev Fallback function for funding smart contract.\n    *\n    */\n    function() external payable {\n        fund(msg.sender);\n    }\n}",
  "sourcePath": "/Users/ruslanposevkin/Downloads/flight-surety/contracts/FlightSuretyData.sol",
  "compiler": {
    "name": "solc",
    "version": "0.4.25+commit.59dbf8f1.Emscripten.clang"
  },
  "schemaVersion": "3.0.1",
  "updatedAt": "2019-03-03T22:21:18.038Z",
  "devdoc": {
    "methods": {
      "activateAirline(address)": {
        "details": "Activate an airline     Can only be called from FlightSuretyApp contract     "
      },
      "addAirlineVotes(address,address)": {
        "details": "Get the list of airline votes     Can only be called from FlightSuretyApp contract     "
      },
      "buyInsurance(address,string,uint256,address,uint256)": {
        "details": "Buy insurance for a flight     "
      },
      "claimInsuranceAmount(address,string,uint256,address,address)": {
        "details": "Claim the insurance amount for a flight"
      },
      "fund(address)": {
        "details": "Initial funding for the insurance. Unless there are too many delayed flights     resulting in insurance payouts, the contract should be self-sustaining     "
      },
      "getActiveAirlines()": {
        "details": "Get the list of activated/funded airlines     Can only be called from FlightSuretyApp contract     "
      },
      "getAirlineVotes(address)": {
        "details": "Get the list of airline votes     Can only be called from FlightSuretyApp contract     "
      },
      "getRegisteredAirlines()": {
        "details": "Get the list of registered airlines     Can only be called from FlightSuretyApp contract     "
      },
      "isAirlineActivated(address)": {
        "details": "Check if the airline is funded/activated     Can only be called from FlightSuretyApp contract     "
      },
      "isAirlineVoted(address,address)": {
        "details": "check if the airline has voted     Can only be called from FlightSuretyApp contract     "
      },
      "isOperational()": {
        "details": "Get operating status of contract",
        "return": "A bool that is the current operating status"
      },
      "registerAirline(address)": {
        "details": "Add an airline to the registration queue     Can only be called from FlightSuretyApp contract     "
      },
      "setOperatingStatus(bool)": {
        "details": "Sets contract operations on/off    * When operational mode is disabled, all write transactions except for this one will fail"
      },
      "withdrawAmount(address)": {
        "details": "Transfers balance to their wallet    "
      }
    }
  },
  "userdoc": {
    "methods": {}
  }
}