{
  "contractName": "FlightSuretyData",
  "abi": [
    {
      "constant": false,
      "inputs": [],
      "name": "renounceOwnership",
      "outputs": [],
      "payable": false,
      "stateMutability": "nonpayable",
      "type": "function",
      "signature": "0x715018a6"
    },
    {
      "constant": true,
      "inputs": [],
      "name": "owner",
      "outputs": [
        {
          "name": "",
          "type": "address"
        }
      ],
      "payable": false,
      "stateMutability": "view",
      "type": "function",
      "signature": "0x8da5cb5b"
    },
    {
      "constant": true,
      "inputs": [],
      "name": "isOwner",
      "outputs": [
        {
          "name": "",
          "type": "bool"
        }
      ],
      "payable": false,
      "stateMutability": "view",
      "type": "function",
      "signature": "0x8f32d59b"
    },
    {
      "constant": false,
      "inputs": [
        {
          "name": "newOwner",
          "type": "address"
        }
      ],
      "name": "transferOwnership",
      "outputs": [],
      "payable": false,
      "stateMutability": "nonpayable",
      "type": "function",
      "signature": "0xf2fde38b"
    },
    {
      "inputs": [],
      "payable": false,
      "stateMutability": "nonpayable",
      "type": "constructor",
      "signature": "constructor"
    },
    {
      "payable": true,
      "stateMutability": "payable",
      "type": "fallback"
    },
    {
      "anonymous": false,
      "inputs": [
        {
          "indexed": true,
          "name": "account",
          "type": "address"
        }
      ],
      "name": "RegisterAirline",
      "type": "event",
      "signature": "0xac78ffce05a964fd93df05896e78ca7d509ad473c8ac2aee9009a32a60afa951"
    },
    {
      "anonymous": false,
      "inputs": [
        {
          "indexed": true,
          "name": "account",
          "type": "string"
        }
      ],
      "name": "RegisterFlight",
      "type": "event",
      "signature": "0x0366c69e79f8ad8a2a11f74187b5a274720fea8cd1ed2ed9b5ba4bde7ef392c8"
    },
    {
      "anonymous": false,
      "inputs": [
        {
          "indexed": false,
          "name": "caller",
          "type": "address"
        }
      ],
      "name": "AuthorizedCaller",
      "type": "event",
      "signature": "0x8afeca650897be3183b7c0d24eba96a1b990f75c4bd74a0cfb2c0a71aec48e61"
    },
    {
      "anonymous": false,
      "inputs": [
        {
          "indexed": false,
          "name": "caller",
          "type": "address"
        }
      ],
      "name": "DeAuthorizedCaller",
      "type": "event",
      "signature": "0x9e8ca6ff03906e81e8a6a03d4f96b7edb0b97f0ed9d07ef1b699fff634385496"
    },
    {
      "anonymous": false,
      "inputs": [
        {
          "indexed": false,
          "name": "passenger",
          "type": "address"
        },
        {
          "indexed": false,
          "name": "flight",
          "type": "string"
        },
        {
          "indexed": false,
          "name": "amount",
          "type": "uint256"
        }
      ],
      "name": "CreditInsured",
      "type": "event",
      "signature": "0x119d729c105f41a1ae53093243b5cfacf6d8dc260fc7ada25734e0142dd0e151"
    },
    {
      "anonymous": false,
      "inputs": [
        {
          "indexed": true,
          "name": "oldOwner",
          "type": "address"
        },
        {
          "indexed": true,
          "name": "newOwner",
          "type": "address"
        }
      ],
      "name": "TransferOwnership",
      "type": "event",
      "signature": "0x5c486528ec3e3f0ea91181cff8116f02bfa350e03b8b6f12e00765adbb5af85c"
    },
    {
      "constant": false,
      "inputs": [
        {
          "name": "_caller",
          "type": "address"
        }
      ],
      "name": "authorizeCaller",
      "outputs": [
        {
          "name": "",
          "type": "bool"
        }
      ],
      "payable": false,
      "stateMutability": "nonpayable",
      "type": "function",
      "signature": "0x2c388d5d"
    },
    {
      "constant": false,
      "inputs": [
        {
          "name": "_caller",
          "type": "address"
        }
      ],
      "name": "deAuthorizeCaller",
      "outputs": [
        {
          "name": "",
          "type": "bool"
        }
      ],
      "payable": false,
      "stateMutability": "nonpayable",
      "type": "function",
      "signature": "0x1bcd250a"
    },
    {
      "constant": false,
      "inputs": [
        {
          "name": "mode",
          "type": "bool"
        }
      ],
      "name": "setTestingMode",
      "outputs": [],
      "payable": false,
      "stateMutability": "nonpayable",
      "type": "function",
      "signature": "0x596d7a68"
    },
    {
      "constant": true,
      "inputs": [],
      "name": "isOperational",
      "outputs": [
        {
          "name": "",
          "type": "bool"
        }
      ],
      "payable": false,
      "stateMutability": "view",
      "type": "function",
      "signature": "0xcd905dff"
    },
    {
      "constant": false,
      "inputs": [
        {
          "name": "mode",
          "type": "bool"
        }
      ],
      "name": "setOperatingStatus",
      "outputs": [],
      "payable": false,
      "stateMutability": "nonpayable",
      "type": "function",
      "signature": "0x110466ed"
    },
    {
      "constant": false,
      "inputs": [
        {
          "name": "mode",
          "type": "bool"
        },
        {
          "name": "sender",
          "type": "address"
        }
      ],
      "name": "setOperatingStatus",
      "outputs": [],
      "payable": false,
      "stateMutability": "nonpayable",
      "type": "function",
      "signature": "0xc590dda5"
    },
    {
      "constant": false,
      "inputs": [
        {
          "name": "airline",
          "type": "address"
        },
        {
          "name": "owner",
          "type": "address"
        }
      ],
      "name": "registerAirline",
      "outputs": [],
      "payable": false,
      "stateMutability": "nonpayable",
      "type": "function",
      "signature": "0xc7ba5018"
    },
    {
      "constant": false,
      "inputs": [
        {
          "name": "airline",
          "type": "address"
        },
        {
          "name": "flightId",
          "type": "string"
        },
        {
          "name": "timestamp",
          "type": "uint256"
        }
      ],
      "name": "registerFlight",
      "outputs": [],
      "payable": false,
      "stateMutability": "nonpayable",
      "type": "function",
      "signature": "0x3cc0be9c"
    },
    {
      "constant": true,
      "inputs": [
        {
          "name": "airline",
          "type": "address"
        }
      ],
      "name": "isAirline",
      "outputs": [
        {
          "name": "",
          "type": "bool"
        }
      ],
      "payable": false,
      "stateMutability": "view",
      "type": "function",
      "signature": "0x0e248a11"
    },
    {
      "constant": true,
      "inputs": [
        {
          "name": "airline",
          "type": "address"
        }
      ],
      "name": "getAirlineOwnership",
      "outputs": [
        {
          "name": "",
          "type": "uint256"
        }
      ],
      "payable": false,
      "stateMutability": "view",
      "type": "function",
      "signature": "0xd0ae44e2"
    },
    {
      "constant": true,
      "inputs": [],
      "name": "getActiveAirlines",
      "outputs": [
        {
          "name": "",
          "type": "address[]"
        }
      ],
      "payable": false,
      "stateMutability": "view",
      "type": "function",
      "signature": "0xfd4d02a4"
    },
    {
      "constant": false,
      "inputs": [
        {
          "name": "passenger",
          "type": "address"
        },
        {
          "name": "flight",
          "type": "string"
        }
      ],
      "name": "flightSuretyInfo",
      "outputs": [
        {
          "name": "",
          "type": "uint256"
        }
      ],
      "payable": false,
      "stateMutability": "nonpayable",
      "type": "function",
      "signature": "0x42c844ca"
    },
    {
      "constant": false,
      "inputs": [
        {
          "name": "passenger",
          "type": "address"
        },
        {
          "name": "flight",
          "type": "string"
        }
      ],
      "name": "buy",
      "outputs": [],
      "payable": true,
      "stateMutability": "payable",
      "type": "function",
      "signature": "0x83451838"
    },
    {
      "constant": false,
      "inputs": [
        {
          "name": "passenger",
          "type": "address"
        },
        {
          "name": "flight",
          "type": "string"
        }
      ],
      "name": "creditInsurees",
      "outputs": [],
      "payable": true,
      "stateMutability": "payable",
      "type": "function",
      "signature": "0x1b7b7cce"
    },
    {
      "constant": false,
      "inputs": [
        {
          "name": "flight",
          "type": "string"
        },
        {
          "name": "amount",
          "type": "uint256"
        }
      ],
      "name": "withdraw",
      "outputs": [],
      "payable": false,
      "stateMutability": "nonpayable",
      "type": "function",
      "signature": "0x30b39a62"
    },
    {
      "constant": false,
      "inputs": [
        {
          "name": "owner",
          "type": "address"
        }
      ],
      "name": "fund",
      "outputs": [],
      "payable": true,
      "stateMutability": "payable",
      "type": "function",
      "signature": "0x23024408"
    }
  ],
  "bytecode": "0x60806040526000604051908082528060200260200182016040528015620000355781602001602082028038833980820191505090505b50600290805190602001906200004d929190620003c3565b506005600360006101000a81548160ff021916908360ff1602179055506001600360016101000a81548160ff0219169083151502179055506000604051908082528060200260200182016040528015620000b65781602001602082028038833980820191505090505b5060049080519060200190620000ce929190620003c3565b506001600560006101000a81548160ff0219169083151502179055506000600560016101000a81548160ff0219169083151502179055506000600560026101000a81548160ff0219169083151502179055503480156200012d57600080fd5b50336000806101000a81548173ffffffffffffffffffffffffffffffffffffffff021916908373ffffffffffffffffffffffffffffffffffffffff1602179055506000809054906101000a900473ffffffffffffffffffffffffffffffffffffffff1673ffffffffffffffffffffffffffffffffffffffff16600073ffffffffffffffffffffffffffffffffffffffff167f5c486528ec3e3f0ea91181cff8116f02bfa350e03b8b6f12e00765adbb5af85c60405160405180910390a333600160006101000a81548173ffffffffffffffffffffffffffffffffffffffff021916908373ffffffffffffffffffffffffffffffffffffffff160217905550606060405190810160405280600115158152602001600160009054906101000a900473ffffffffffffffffffffffffffffffffffffffff1673ffffffffffffffffffffffffffffffffffffffff168152602001600081525060076000600160009054906101000a900473ffffffffffffffffffffffffffffffffffffffff1673ffffffffffffffffffffffffffffffffffffffff1673ffffffffffffffffffffffffffffffffffffffff16815260200190815260200160002060008201518160000160006101000a81548160ff02191690831515021790555060208201518160000160016101000a81548173ffffffffffffffffffffffffffffffffffffffff021916908373ffffffffffffffffffffffffffffffffffffffff16021790555060408201518160010155905050600160009054906101000a900473ffffffffffffffffffffffffffffffffffffffff1673ffffffffffffffffffffffffffffffffffffffff167fac78ffce05a964fd93df05896e78ca7d509ad473c8ac2aee9009a32a60afa95160405160405180910390a262000498565b8280548282559060005260206000209081019282156200043f579160200282015b828111156200043e5782518260006101000a81548173ffffffffffffffffffffffffffffffffffffffff021916908373ffffffffffffffffffffffffffffffffffffffff16021790555091602001919060010190620003e4565b5b5090506200044e919062000452565b5090565b6200049591905b808211156200049157600081816101000a81549073ffffffffffffffffffffffffffffffffffffffff02191690555060010162000459565b5090565b90565b613a1b80620004a86000396000f300608060405260043610610112576000357c0100000000000000000000000000000000000000000000000000000000900463ffffffff1680630e248a111461028e578063110466ed146102e95780631b7b7cce146103185780631bcd250a1461036657806323024408146103c15780632c388d5d146103f757806330b39a62146104525780633cc0be9c1461049757806342c844ca146104fc578063596d7a681461056b578063715018a61461059a57806383451838146105b15780638da5cb5b146105ff5780638f32d59b14610656578063c590dda514610685578063c7ba5018146106d4578063cd905dff14610737578063d0ae44e214610766578063f2fde38b146107bd578063fd4d02a414610800575b6001600960003373ffffffffffffffffffffffffffffffffffffffff1673ffffffffffffffffffffffffffffffffffffffff16815260200190815260200160002060009054906101000a900460ff1660ff161415156101d9576040517f08c379a00000000000000000000000000000000000000000000000000000000081526004018080602001828103825260188152602001807f43616c6c6572206973206e6f7420617574686f72697a6564000000000000000081525060200191505060405180910390fd5b600560009054906101000a900460ff161515610283576040517f08c379a00000000000000000000000000000000000000000000000000000000081526004018080602001828103825260258152602001807f436f6e74726163742069732063757272656e746c79206e6f74206f706572617481526020017f696f6e616c00000000000000000000000000000000000000000000000000000081525060400191505060405180910390fd5b61028c3361086c565b005b34801561029a57600080fd5b506102cf600480360381019080803573ffffffffffffffffffffffffffffffffffffffff169060200190929190505050610d44565b604051808215151515815260200191505060405180910390f35b3480156102f557600080fd5b50610316600480360381019080803515159060200190929190505050610f0e565b005b610364600480360381019080803573ffffffffffffffffffffffffffffffffffffffff169060200190929190803590602001908201803590602001919091929391929390505050610ff0565b005b34801561037257600080fd5b506103a7600480360381019080803573ffffffffffffffffffffffffffffffffffffffff1690602001909291905050506113a8565b604051808215151515815260200191505060405180910390f35b6103f5600480360381019080803573ffffffffffffffffffffffffffffffffffffffff16906020019092919050505061086c565b005b34801561040357600080fd5b50610438600480360381019080803573ffffffffffffffffffffffffffffffffffffffff169060200190929190505050611482565b604051808215151515815260200191505060405180910390f35b34801561045e57600080fd5b506104956004803603810190808035906020019082018035906020019190919293919293908035906020019092919050505061155c565b005b3480156104a357600080fd5b506104fa600480360381019080803573ffffffffffffffffffffffffffffffffffffffff169060200190929190803590602001908201803590602001919091929391929390803590602001909291905050506118d5565b005b34801561050857600080fd5b50610555600480360381019080803573ffffffffffffffffffffffffffffffffffffffff169060200190929190803590602001908201803590602001919091929391929390505050611cd0565b6040518082815260200191505060405180910390f35b34801561057757600080fd5b50610598600480360381019080803515159060200190929190505050611ff1565b005b3480156105a657600080fd5b506105af61217d565b005b6105fd600480360381019080803573ffffffffffffffffffffffffffffffffffffffff16906020019092919080359060200190820180359060200191909192939192939050505061224f565b005b34801561060b57600080fd5b506106146125ae565b604051808273ffffffffffffffffffffffffffffffffffffffff1673ffffffffffffffffffffffffffffffffffffffff16815260200191505060405180910390f35b34801561066257600080fd5b5061066b6125d7565b604051808215151515815260200191505060405180910390f35b34801561069157600080fd5b506106d2600480360381019080803515159060200190929190803573ffffffffffffffffffffffffffffffffffffffff16906020019092919050505061262e565b005b3480156106e057600080fd5b50610735600480360381019080803573ffffffffffffffffffffffffffffffffffffffff169060200190929190803573ffffffffffffffffffffffffffffffffffffffff169060200190929190505050612983565b005b34801561074357600080fd5b5061074c61330e565b604051808215151515815260200191505060405180910390f35b34801561077257600080fd5b506107a7600480360381019080803573ffffffffffffffffffffffffffffffffffffffff169060200190929190505050613325565b6040518082815260200191505060405180910390f35b3480156107c957600080fd5b506107fe600480360381019080803573ffffffffffffffffffffffffffffffffffffffff1690602001909291905050506134e2565b005b34801561080c57600080fd5b50610815613501565b6040518080602001828103825283818151815260200191508051906020019060200280838360005b8381101561085857808201518184015260208101905061083d565b505050509050019250505060405180910390f35b6000806001600960003373ffffffffffffffffffffffffffffffffffffffff1673ffffffffffffffffffffffffffffffffffffffff16815260200190815260200160002060009054906101000a900460ff1660ff16141515610936576040517f08c379a00000000000000000000000000000000000000000000000000000000081526004018080602001828103825260188152602001807f43616c6c6572206973206e6f7420617574686f72697a6564000000000000000081525060200191505060405180910390fd5b600560009054906101000a900460ff1615156109e0576040517f08c379a00000000000000000000000000000000000000000000000000000000081526004018080602001828103825260258152602001807f436f6e74726163742069732063757272656e746c79206e6f74206f706572617481526020017f696f6e616c00000000000000000000000000000000000000000000000000000081525060400191505060405180910390fd5b600a3410151515610a59576040517f08c379a00000000000000000000000000000000000000000000000000000000081526004018080602001828103825260188152602001807f313020697320746865206d696e696d616c20616d6f756e74000000000000000081525060200191505060405180910390fd5b600760008473ffffffffffffffffffffffffffffffffffffffff1673ffffffffffffffffffffffffffffffffffffffff16815260200190815260200160002060000160009054906101000a900460ff161515610b1d576040517f08c379a00000000000000000000000000000000000000000000000000000000081526004018080602001828103825260178152602001807f4169726c696e65207761736e277420726567697374657200000000000000000081525060200191505060405180910390fd5b600a60008473ffffffffffffffffffffffffffffffffffffffff1673ffffffffffffffffffffffffffffffffffffffff168152602001908152602001600020549150610b72348361370090919063ffffffff16565b90506000600a60008573ffffffffffffffffffffffffffffffffffffffff1673ffffffffffffffffffffffffffffffffffffffff168152602001908152602001600020819055508273ffffffffffffffffffffffffffffffffffffffff166108fc829081150290604051600060405180830381858888f19350505050158015610bff573d6000803e3d6000fd5b506001600760008573ffffffffffffffffffffffffffffffffffffffff1673ffffffffffffffffffffffffffffffffffffffff16815260200190815260200160002060010154141515610cb35760048390806001815401808255809150509060018203906000526020600020016000909192909190916101000a81548173ffffffffffffffffffffffffffffffffffffffff021916908373ffffffffffffffffffffffffffffffffffffffff160217905550505b6001600760008573ffffffffffffffffffffffffffffffffffffffff1673ffffffffffffffffffffffffffffffffffffffff1681526020019081526020016000206001018190555080600a60008573ffffffffffffffffffffffffffffffffffffffff1673ffffffffffffffffffffffffffffffffffffffff16815260200190815260200160002081905550505050565b60006001600960003373ffffffffffffffffffffffffffffffffffffffff1673ffffffffffffffffffffffffffffffffffffffff16815260200190815260200160002060009054906101000a900460ff1660ff16141515610e0d576040517f08c379a00000000000000000000000000000000000000000000000000000000081526004018080602001828103825260188152602001807f43616c6c6572206973206e6f7420617574686f72697a6564000000000000000081525060200191505060405180910390fd5b600560009054906101000a900460ff161515610eb7576040517f08c379a00000000000000000000000000000000000000000000000000000000081526004018080602001828103825260258152602001807f436f6e74726163742069732063757272656e746c79206e6f74206f706572617481526020017f696f6e616c00000000000000000000000000000000000000000000000000000081525060400191505060405180910390fd5b600760008373ffffffffffffffffffffffffffffffffffffffff1673ffffffffffffffffffffffffffffffffffffffff16815260200190815260200160002060000160009054906101000a900460ff169050919050565b600160009054906101000a900473ffffffffffffffffffffffffffffffffffffffff1673ffffffffffffffffffffffffffffffffffffffff163373ffffffffffffffffffffffffffffffffffffffff16141515610fd3576040517f08c379a000000000000000000000000000000000000000000000000000000000815260040180806020018281038252601c8152602001807f43616c6c6572206973206e6f7420636f6e7472616374206f776e65720000000081525060200191505060405180910390fd5b80600560006101000a81548160ff02191690831515021790555050565b60008060006001600960003373ffffffffffffffffffffffffffffffffffffffff1673ffffffffffffffffffffffffffffffffffffffff16815260200190815260200160002060009054906101000a900460ff1660ff161415156110bc576040517f08c379a00000000000000000000000000000000000000000000000000000000081526004018080602001828103825260188152602001807f43616c6c6572206973206e6f7420617574686f72697a6564000000000000000081525060200191505060405180910390fd5b600560009054906101000a900460ff161515611166576040517f08c379a00000000000000000000000000000000000000000000000000000000081526004018080602001828103825260258152602001807f436f6e74726163742069732063757272656e746c79206e6f74206f706572617481526020017f696f6e616c00000000000000000000000000000000000000000000000000000081525060400191505060405180910390fd5b858585604051602001808473ffffffffffffffffffffffffffffffffffffffff1673ffffffffffffffffffffffffffffffffffffffff166c01000000000000000000000000028152601401838380828437820191505093505050506040516020818303038152906040526040518082805190602001908083835b60208310151561120557805182526020820191506020810190506020830392506111e0565b6001836020036101000a03801982511681845116808217855250505050505090500191505060405180910390209250600b600084600019166000191681526020019081526020016000205491506000821115156112ca576040517f08c379a00000000000000000000000000000000000000000000000000000000081526004018080602001828103825260118152602001807f4e6f7468696e6720746f20726566756e6400000000000000000000000000000081525060200191505060405180910390fd5b6112f1600a6112e3600f8561371c90919063ffffffff16565b61375490919063ffffffff16565b905080600b60008560001916600019168152602001908152602001600020819055507f119d729c105f41a1ae53093243b5cfacf6d8dc260fc7ada25734e0142dd0e15186868684604051808573ffffffffffffffffffffffffffffffffffffffff1673ffffffffffffffffffffffffffffffffffffffff16815260200180602001838152602001828103825285858281815260200192508082843782019150509550505050505060405180910390a1505050505050565b60006113b26125d7565b15156113bd57600080fd5b6000600960008473ffffffffffffffffffffffffffffffffffffffff1673ffffffffffffffffffffffffffffffffffffffff16815260200190815260200160002060006101000a81548160ff021916908360ff1602179055507f9e8ca6ff03906e81e8a6a03d4f96b7edb0b97f0ed9d07ef1b699fff63438549682604051808273ffffffffffffffffffffffffffffffffffffffff1673ffffffffffffffffffffffffffffffffffffffff16815260200191505060405180910390a160019050919050565b600061148c6125d7565b151561149757600080fd5b6001600960008473ffffffffffffffffffffffffffffffffffffffff1673ffffffffffffffffffffffffffffffffffffffff16815260200190815260200160002060006101000a81548160ff021916908360ff1602179055507f8afeca650897be3183b7c0d24eba96a1b990f75c4bd74a0cfb2c0a71aec48e6182604051808273ffffffffffffffffffffffffffffffffffffffff1673ffffffffffffffffffffffffffffffffffffffff16815260200191505060405180910390a160019050919050565b6000806001600960003373ffffffffffffffffffffffffffffffffffffffff1673ffffffffffffffffffffffffffffffffffffffff16815260200190815260200160002060009054906101000a900460ff1660ff16141515611626576040517f08c379a00000000000000000000000000000000000000000000000000000000081526004018080602001828103825260188152602001807f43616c6c6572206973206e6f7420617574686f72697a6564000000000000000081525060200191505060405180910390fd5b600560009054906101000a900460ff1615156116d0576040517f08c379a00000000000000000000000000000000000000000000000000000000081526004018080602001828103825260258152602001807f436f6e74726163742069732063757272656e746c79206e6f74206f706572617481526020017f696f6e616c00000000000000000000000000000000000000000000000000000081525060400191505060405180910390fd5b338585604051602001808473ffffffffffffffffffffffffffffffffffffffff1673ffffffffffffffffffffffffffffffffffffffff166c01000000000000000000000000028152601401838380828437820191505093505050506040516020818303038152906040526040518082805190602001908083835b60208310151561176f578051825260208201915060208101905060208303925061174a565b6001836020036101000a03801982511681845116808217855250505050505090500191505060405180910390209150600b60008360001916600019168152602001908152602001600020549050828110151515611834576040517f08c379a00000000000000000000000000000000000000000000000000000000081526004018080602001828103825260128152602001807f496e73756666696369656e742066756e6473000000000000000000000000000081525060200191505060405180910390fd5b6000600b60008460001916600019168152602001908152602001600020819055503373ffffffffffffffffffffffffffffffffffffffff166108fc849081150290604051600060405180830381858888f1935050505015801561189b573d6000803e3d6000fd5b506118af838261376a90919063ffffffff16565b600b60008460001916600019168152602001908152602001600020819055505050505050565b6001600960003373ffffffffffffffffffffffffffffffffffffffff1673ffffffffffffffffffffffffffffffffffffffff16815260200190815260200160002060009054906101000a900460ff1660ff1614151561199c576040517f08c379a00000000000000000000000000000000000000000000000000000000081526004018080602001828103825260188152602001807f43616c6c6572206973206e6f7420617574686f72697a6564000000000000000081525060200191505060405180910390fd5b600560009054906101000a900460ff161515611a46576040517f08c379a00000000000000000000000000000000000000000000000000000000081526004018080602001828103825260258152602001807f436f6e74726163742069732063757272656e746c79206e6f74206f706572617481526020017f696f6e616c00000000000000000000000000000000000000000000000000000081525060400191505060405180910390fd5b600760008573ffffffffffffffffffffffffffffffffffffffff1673ffffffffffffffffffffffffffffffffffffffff16815260200190815260200160002060000160009054906101000a900460ff161515611b0a576040517f08c379a00000000000000000000000000000000000000000000000000000000081526004018080602001828103825260168152602001807f4e6f6e2d72656769737465726564206169726c696e650000000000000000000081525060200191505060405180910390fd5b60c060405190810160405280600115158152602001600060ff1681526020018281526020018573ffffffffffffffffffffffffffffffffffffffff16815260200184848080601f0160208091040260200160405190810160405280939291908181526020018383808284378201915050505050508152602001600015158152506006848460405180838380828437820191505092505050908152602001604051809103902060008201518160000160006101000a81548160ff02191690831515021790555060208201518160000160016101000a81548160ff021916908360ff1602179055506040820151816001015560608201518160020160006101000a81548173ffffffffffffffffffffffffffffffffffffffff021916908373ffffffffffffffffffffffffffffffffffffffff1602179055506080820151816003019080519060200190611c5d92919061387d565b5060a08201518160040160006101000a81548160ff02191690831515021790555090505082826040518083838082843782019150509250505060405180910390207f0366c69e79f8ad8a2a11f74187b5a274720fea8cd1ed2ed9b5ba4bde7ef392c860405160405180910390a250505050565b6000806001600960003373ffffffffffffffffffffffffffffffffffffffff1673ffffffffffffffffffffffffffffffffffffffff16815260200190815260200160002060009054906101000a900460ff1660ff16141515611d9a576040517f08c379a00000000000000000000000000000000000000000000000000000000081526004018080602001828103825260188152602001807f43616c6c6572206973206e6f7420617574686f72697a6564000000000000000081525060200191505060405180910390fd5b600560009054906101000a900460ff161515611e44576040517f08c379a00000000000000000000000000000000000000000000000000000000081526004018080602001828103825260258152602001807f436f6e74726163742069732063757272656e746c79206e6f74206f706572617481526020017f696f6e616c00000000000000000000000000000000000000000000000000000081525060400191505060405180910390fd5b848484604051602001808473ffffffffffffffffffffffffffffffffffffffff1673ffffffffffffffffffffffffffffffffffffffff166c01000000000000000000000000028152601401838380828437820191505093505050506040516020818303038152906040526040518082805190602001908083835b602083101515611ee35780518252602082019150602081019050602083039250611ebe565b6001836020036101000a038019825116818451168082178552505050505050905001915050604051809103902090506000600b6000836000191660001916815260200190815260200160002054111515611fcb576040517f08c379a00000000000000000000000000000000000000000000000000000000081526004018080602001828103825260328152602001807f546865726520617265206e6f207375726574797220666f72207468697320666c81526020017f6967687420616e642070617373656e676572000000000000000000000000000081525060400191505060405180910390fd5b600b60008260001916600019168152602001908152602001600020549150509392505050565b600160009054906101000a900473ffffffffffffffffffffffffffffffffffffffff1673ffffffffffffffffffffffffffffffffffffffff163373ffffffffffffffffffffffffffffffffffffffff161415156120b6576040517f08c379a000000000000000000000000000000000000000000000000000000000815260040180806020018281038252601c8152602001807f43616c6c6572206973206e6f7420636f6e7472616374206f776e65720000000081525060200191505060405180910390fd5b600560009054906101000a900460ff161515612160576040517f08c379a00000000000000000000000000000000000000000000000000000000081526004018080602001828103825260258152602001807f436f6e74726163742069732063757272656e746c79206e6f74206f706572617481526020017f696f6e616c00000000000000000000000000000000000000000000000000000081525060400191505060405180910390fd5b80600560026101000a81548160ff02191690831515021790555050565b6121856125d7565b151561219057600080fd5b600073ffffffffffffffffffffffffffffffffffffffff166000809054906101000a900473ffffffffffffffffffffffffffffffffffffffff1673ffffffffffffffffffffffffffffffffffffffff167f5c486528ec3e3f0ea91181cff8116f02bfa350e03b8b6f12e00765adbb5af85c60405160405180910390a360008060006101000a81548173ffffffffffffffffffffffffffffffffffffffff021916908373ffffffffffffffffffffffffffffffffffffffff160217905550565b6000600560009054906101000a900460ff1615156122fb576040517f08c379a00000000000000000000000000000000000000000000000000000000081526004018080602001828103825260258152602001807f436f6e74726163742069732063757272656e746c79206e6f74206f706572617481526020017f696f6e616c00000000000000000000000000000000000000000000000000000081525060400191505060405180910390fd5b670de0b6b3a7640000341115151561237b576040517f08c379a00000000000000000000000000000000000000000000000000000000081526004018080602001828103825260198152602001807f4d6178696d756d2073757265747920697320312065746865720000000000000081525060200191505060405180910390fd5b838383604051602001808473ffffffffffffffffffffffffffffffffffffffff1673ffffffffffffffffffffffffffffffffffffffff166c01000000000000000000000000028152601401838380828437820191505093505050506040516020818303038152906040526040518082805190602001908083835b60208310151561241a57805182526020820191506020810190506020830392506123f5565b6001836020036101000a038019825116818451168082178552505050505050905001915050604051809103902090506006838360405180838380828437820191505092505050908152602001604051809103902060040160009054906101000a900460ff161515156124f4576040517f08c379a00000000000000000000000000000000000000000000000000000000081526004018080602001828103825260178152602001807f5375726574792077617320616c7265616479207061696400000000000000000081525060200191505060405180910390fd5b6000600b600083600019166000191681526020019081526020016000205411151515612588576040517f08c379a000000000000000000000000000000000000000000000000000000000815260040180806020018281038252601f8152602001807f50617373656e67657220616c726561647920626f75676874207375726574790081525060200191505060405180910390fd5b34600b600083600019166000191681526020019081526020016000208190555050505050565b60008060009054906101000a900473ffffffffffffffffffffffffffffffffffffffff16905090565b60008060009054906101000a900473ffffffffffffffffffffffffffffffffffffffff1673ffffffffffffffffffffffffffffffffffffffff163373ffffffffffffffffffffffffffffffffffffffff1614905090565b600080600560009054906101000a900460ff161515841515141515156126bc576040517f08c379a00000000000000000000000000000000000000000000000000000000081526004018080602001828103825260188152602001807f6d6f64652073686f756c6420626520646966666572656e74000000000000000081525060200191505060405180910390fd5b600760008473ffffffffffffffffffffffffffffffffffffffff1673ffffffffffffffffffffffffffffffffffffffff16815260200190815260200160002060000160009054906101000a900460ff161515612780576040517f08c379a00000000000000000000000000000000000000000000000000000000081526004018080602001828103825260168152602001807f43616c6c6572207761736e27742072656769737465720000000000000000000081525060200191505060405180910390fd5b60009150600090505b600280549050811015612819578273ffffffffffffffffffffffffffffffffffffffff166002828154811015156127bc57fe5b9060005260206000200160009054906101000a900473ffffffffffffffffffffffffffffffffffffffff1673ffffffffffffffffffffffffffffffffffffffff16141561280c5760019150612819565b8080600101915050612789565b8115151561288f576040517f08c379a00000000000000000000000000000000000000000000000000000000081526004018080602001828103825260208152602001807f546869732066756e6374696f6e2077617320616c72656164792063616c6c656481525060200191505060405180910390fd5b60028390806001815401808255809150509060018203906000526020600020016000909192909190916101000a81548173ffffffffffffffffffffffffffffffffffffffff021916908373ffffffffffffffffffffffffffffffffffffffff1602179055505061290e600260048054905061375490919063ffffffff16565b60028054905010151561297d5783600560006101000a81548160ff02191690831515021790555060006040519080825280602002602001820160405280156129655781602001602082028038833980820191505090505b506002908051906020019061297b9291906138fd565b505b50505050565b6000806001600960003373ffffffffffffffffffffffffffffffffffffffff1673ffffffffffffffffffffffffffffffffffffffff16815260200190815260200160002060009054906101000a900460ff1660ff16141515612a4d576040517f08c379a00000000000000000000000000000000000000000000000000000000081526004018080602001828103825260188152602001807f43616c6c6572206973206e6f7420617574686f72697a6564000000000000000081525060200191505060405180910390fd5b600560009054906101000a900460ff161515612af7576040517f08c379a00000000000000000000000000000000000000000000000000000000081526004018080602001828103825260258152602001807f436f6e74726163742069732063757272656e746c79206e6f74206f706572617481526020017f696f6e616c00000000000000000000000000000000000000000000000000000081525060400191505060405180910390fd5b600760008573ffffffffffffffffffffffffffffffffffffffff1673ffffffffffffffffffffffffffffffffffffffff16815260200190815260200160002060000160009054906101000a900460ff16151515612bbc576040517f08c379a000000000000000000000000000000000000000000000000000000000815260040180806020018281038252601e8152602001807f4169726c696e652077617320616c72656164792072656769737465726564000081525060200191505060405180910390fd5b600160009054906101000a900473ffffffffffffffffffffffffffffffffffffffff1673ffffffffffffffffffffffffffffffffffffffff168473ffffffffffffffffffffffffffffffffffffffff1614151561330857600760008473ffffffffffffffffffffffffffffffffffffffff1673ffffffffffffffffffffffffffffffffffffffff16815260200190815260200160002060000160009054906101000a900460ff161515612cd7576040517f08c379a00000000000000000000000000000000000000000000000000000000081526004018080602001828103825260148152602001807f4e6f6e2d6578697374696e67206169726c696e6500000000000000000000000081525060200191505060405180910390fd5b600360009054906101000a900460ff1660ff166004805490501015612ff7578273ffffffffffffffffffffffffffffffffffffffff168473ffffffffffffffffffffffffffffffffffffffff1614151515612dc0576040517f08c379a00000000000000000000000000000000000000000000000000000000081526004018080602001828103825260368152602001807f556e6465722066697665206169726c696e65732c20616e206169726c696e652081526020017f63616e6e6f7420726567697374657220697473656c660000000000000000000081525060400191505060405180910390fd5b6000600760008573ffffffffffffffffffffffffffffffffffffffff1673ffffffffffffffffffffffffffffffffffffffff16815260200190815260200160002060010154111515612ec6576040517f08c379a00000000000000000000000000000000000000000000000000000000081526004018080602001828103825260478152602001807f556e6465722066697665206169726c696e65732c20616e206169726c696e652081526020017f776974686f7574206f776e6572736869702063616e6e6f74207265676973746581526020017f72206f746865720000000000000000000000000000000000000000000000000081525060600191505060405180910390fd5b6060604051908101604052806001151581526020018573ffffffffffffffffffffffffffffffffffffffff1681526020016000815250600760008673ffffffffffffffffffffffffffffffffffffffff1673ffffffffffffffffffffffffffffffffffffffff16815260200190815260200160002060008201518160000160006101000a81548160ff02191690831515021790555060208201518160000160016101000a81548173ffffffffffffffffffffffffffffffffffffffff021916908373ffffffffffffffffffffffffffffffffffffffff160217905550604082015181600101559050508373ffffffffffffffffffffffffffffffffffffffff167fac78ffce05a964fd93df05896e78ca7d509ad473c8ac2aee9009a32a60afa95160405160405180910390a2613307565b60009150600090505b600280549050811015613090573373ffffffffffffffffffffffffffffffffffffffff1660028281548110151561303357fe5b9060005260206000200160009054906101000a900473ffffffffffffffffffffffffffffffffffffffff1673ffffffffffffffffffffffffffffffffffffffff1614156130835760019150613090565b8080600101915050613000565b81151515613106576040517f08c379a00000000000000000000000000000000000000000000000000000000081526004018080602001828103825260208152602001807f546869732066756e6374696f6e2077617320616c72656164792063616c6c656481525060200191505060405180910390fd5b60023390806001815401808255809150509060018203906000526020600020016000909192909190916101000a81548173ffffffffffffffffffffffffffffffffffffffff021916908373ffffffffffffffffffffffffffffffffffffffff16021790555050613185600260048054905061375490919063ffffffff16565b600280549050101515613306576060604051908101604052806001151581526020018573ffffffffffffffffffffffffffffffffffffffff1681526020016000815250600760008673ffffffffffffffffffffffffffffffffffffffff1673ffffffffffffffffffffffffffffffffffffffff16815260200190815260200160002060008201518160000160006101000a81548160ff02191690831515021790555060208201518160000160016101000a81548173ffffffffffffffffffffffffffffffffffffffff021916908373ffffffffffffffffffffffffffffffffffffffff1602179055506040820151816001015590505060006040519080825280602002602001820160405280156132ab5781602001602082028038833980820191505090505b50600290805190602001906132c19291906138fd565b508373ffffffffffffffffffffffffffffffffffffffff167fac78ffce05a964fd93df05896e78ca7d509ad473c8ac2aee9009a32a60afa95160405160405180910390a25b5b5b50505050565b6000600560009054906101000a900460ff16905090565b60006001600960003373ffffffffffffffffffffffffffffffffffffffff1673ffffffffffffffffffffffffffffffffffffffff16815260200190815260200160002060009054906101000a900460ff1660ff161415156133ee576040517f08c379a00000000000000000000000000000000000000000000000000000000081526004018080602001828103825260188152602001807f43616c6c6572206973206e6f7420617574686f72697a6564000000000000000081525060200191505060405180910390fd5b600560009054906101000a900460ff161515613498576040517f08c379a00000000000000000000000000000000000000000000000000000000081526004018080602001828103825260258152602001807f436f6e74726163742069732063757272656e746c79206e6f74206f706572617481526020017f696f6e616c00000000000000000000000000000000000000000000000000000081525060400191505060405180910390fd5b600760008373ffffffffffffffffffffffffffffffffffffffff1673ffffffffffffffffffffffffffffffffffffffff168152602001908152602001600020600101549050919050565b6134ea6125d7565b15156134f557600080fd5b6134fe81613783565b50565b60606001600960003373ffffffffffffffffffffffffffffffffffffffff1673ffffffffffffffffffffffffffffffffffffffff16815260200190815260200160002060009054906101000a900460ff1660ff161415156135ca576040517f08c379a00000000000000000000000000000000000000000000000000000000081526004018080602001828103825260188152602001807f43616c6c6572206973206e6f7420617574686f72697a6564000000000000000081525060200191505060405180910390fd5b600560009054906101000a900460ff161515613674576040517f08c379a00000000000000000000000000000000000000000000000000000000081526004018080602001828103825260258152602001807f436f6e74726163742069732063757272656e746c79206e6f74206f706572617481526020017f696f6e616c00000000000000000000000000000000000000000000000000000081525060400191505060405180910390fd5b60048054806020026020016040519081016040528092919081815260200182805480156136f657602002820191906000526020600020905b8160009054906101000a900473ffffffffffffffffffffffffffffffffffffffff1673ffffffffffffffffffffffffffffffffffffffff16815260200190600101908083116136ac575b5050505050905090565b6000818301905082811015151561371357fe5b80905092915050565b60008083141561372f576000905061374e565b818302905081838281151561374057fe5b0414151561374a57fe5b8090505b92915050565b6000818381151561376157fe5b04905092915050565b600082821115151561377857fe5b818303905092915050565b600073ffffffffffffffffffffffffffffffffffffffff168173ffffffffffffffffffffffffffffffffffffffff16141515156137bf57600080fd5b8073ffffffffffffffffffffffffffffffffffffffff166000809054906101000a900473ffffffffffffffffffffffffffffffffffffffff1673ffffffffffffffffffffffffffffffffffffffff167f5c486528ec3e3f0ea91181cff8116f02bfa350e03b8b6f12e00765adbb5af85c60405160405180910390a3806000806101000a81548173ffffffffffffffffffffffffffffffffffffffff021916908373ffffffffffffffffffffffffffffffffffffffff16021790555050565b828054600181600116156101000203166002900490600052602060002090601f016020900481019282601f106138be57805160ff19168380011785556138ec565b828001600101855582156138ec579182015b828111156138eb5782518255916020019190600101906138d0565b5b5090506138f99190613987565b5090565b828054828255906000526020600020908101928215613976579160200282015b828111156139755782518260006101000a81548173ffffffffffffffffffffffffffffffffffffffff021916908373ffffffffffffffffffffffffffffffffffffffff1602179055509160200191906001019061391d565b5b50905061398391906139ac565b5090565b6139a991905b808211156139a557600081600090555060010161398d565b5090565b90565b6139ec91905b808211156139e857600081816101000a81549073ffffffffffffffffffffffffffffffffffffffff0219169055506001016139b2565b5090565b905600a165627a7a72305820a91c4b16552d828c65a8546ddf8761402bec825f31cc9a54b851d142e745abcb0029",
  "source": "pragma solidity ^0.4.25;\n\nimport \"../node_modules/openzeppelin-solidity/contracts/math/SafeMath.sol\";\nimport \"./Ownable.sol\";\n\ncontract FlightSuretyData is Ownable {\n    using SafeMath for uint256;\n\n    /********************************************************************************************/\n    /*                                       DATA VARIABLES                                     */\n    /********************************************************************************************/\n\n    address private contractOwner;                                      // Account used to deploy contract\n\n    address[] multiCalls = new address[](0);\n    uint8 AIRLINE_LENGTH_LIMIT = 5;\n    bool isAirlineRegistrationOperational = true;\n\n    address[] enabledAirlines = new address[](0);\n\n    bool private operational = true;                                    // Blocks all state changes throughout the contract if false\n    bool private has_initialized = false;\n    bool private testingMode = false;\n\n    struct Flight {\n        bool isRegistered;\n        uint8 statusCode;\n        uint256 updatedTimestamp;\n        address airline;\n        string id;\n        bool hasBeenInsured;\n    }\n    \n    struct Airline {\n        bool isRegistered;\n        address account;\n        uint256 ownership;\n    }\n\n    mapping(string => Flight) flights;\n    mapping(address => Airline) airlines;\n    mapping(string => address[]) flightInsurees;\n    mapping(address => uint8) authorizedCaller;\n    mapping(address => uint256) funds;\n    mapping(bytes32 => uint256) flightSurety;\n    /********************************************************************************************/\n    /*                                       EVENT DEFINITIONS                                  */\n    /********************************************************************************************/\n\n    /**\n    * @dev Constructor\n    *      The deploying account becomes contractOwner\n    */\n    constructor\n        (\n        ) \n        public \n    {\n        contractOwner = msg.sender;\n        airlines[contractOwner] = Airline({\n            isRegistered: true,\n            account: contractOwner,\n            ownership: 0\n        });\n        emit RegisterAirline(contractOwner);\n    }\n\n    event RegisterAirline\n    (\n        address indexed account\n    );\n\n    event RegisterFlight\n    (\n        string indexed account\n    );\n\n    event AuthorizedCaller(address caller);\n    event DeAuthorizedCaller(address caller);\n    event CreditInsured(address passenger, string flight, uint256 amount);\n\n\n    /********************************************************************************************/\n    /*                                       FUNCTION MODIFIERS                                 */\n    /********************************************************************************************/\n\n    // Modifiers help avoid duplication of code. They are typically used to validate something\n    // before a function is allowed to be executed.\n\n    /**\n    * @dev Modifier that checks that caller is contract owner\n    */\n    modifier requireIsCallerAuthorized()\n    {\n        require(authorizedCaller[msg.sender] == 1, \"Caller is not authorized\");\n        _;\n    }\n\n    /**\n    * @dev Modifier that requires the \"operational\" boolean variable to be \"true\"\n    *      This is used on all state changing functions to pause the contract in \n    *      the event there is an issue that needs to be fixed\n    */\n    modifier requireIsOperational() \n    {\n        require(operational, \"Contract is currently not operational\");\n        _;  // All modifiers require an \"_\" which indicates where the function body will be added\n    }\n\n    /**\n    * @dev Modifier that requires the \"ContractOwner\" account to be the function caller\n    */\n    modifier requireContractOwner()\n    {\n        require(msg.sender == contractOwner, \"Caller is not contract owner\");\n        _;\n    }\n\n    /********************************************************************************************/\n    /*                                       UTILITY FUNCTIONS                                  */\n    /********************************************************************************************/\n\n    function authorizeCaller(address _caller) public onlyOwner returns(bool)\n    {\n        authorizedCaller[_caller] = 1;\n        emit AuthorizedCaller(_caller);\n        return true;\n    }\n\n    function deAuthorizeCaller(address _caller) public onlyOwner returns(bool)\n    {\n        authorizedCaller[_caller] = 0;\n        emit DeAuthorizedCaller(_caller);\n        return true;\n    }\n\n    function setOperatingStatus\n        (\n            bool mode,\n            address sender\n        )\n        external\n    {\n        require(mode != operational, \"mode should be different\");\n        require(airlines[sender].isRegistered, \"Caller wasn't register\");\n\n        bool isDuplicate = false;\n        for(uint c=0; c<multiCalls.length; c++) {\n            if (multiCalls[c] == sender) {\n                isDuplicate = true;\n                break;\n            }\n        }\n\n        require(!isDuplicate, \"This function was already called\");\n\n        multiCalls.push(sender);\n        if (multiCalls.length >= (enabledAirlines.length.div(2))) {\n            operational = mode;\n            multiCalls = new address[](0);\n        }\n    }\n\n    function setTestingMode\n        (\n            bool mode\n        )\n        external\n        requireContractOwner\n        requireIsOperational\n    {\n        testingMode = mode;\n    }\n\n    /**\n    * @dev Get operating status of contract\n    *\n    * @return A bool that is the current operating status\n    */      \n    function isOperational() \n        public \n        view \n        returns(bool) \n    {\n        return operational;\n    }\n\n\n    /**\n    * @dev Sets contract operations on/off\n    *\n    * When operational mode is disabled, all write transactions except for this one will fail\n    */    \n    function setOperatingStatus\n        (\n            bool mode\n        ) \n        external\n        requireContractOwner \n    {\n        operational = mode;\n    }\n\n    /********************************************************************************************/\n    /*                                     SMART CONTRACT FUNCTIONS                             */\n    /********************************************************************************************/\n\n   /**\n    * @dev Add an airline to the registration queue\n    *      Can only be called from FlightSuretyApp contract\n    *\n    */   \n    function registerAirline\n        (   \n            address airline,\n            address owner\n        )\n        external\n        requireIsCallerAuthorized\n        requireIsOperational\n    {\n        require(!airlines[airline].isRegistered, \"Airline was already registered\");\n        if (airline != contractOwner) {\n            require(airlines[owner].isRegistered, \"Non-existing airline\");\n            if (enabledAirlines.length < AIRLINE_LENGTH_LIMIT) {\n                require(airline != owner, \"Under five airlines, an airline cannot register itself\");\n                require(airlines[owner].ownership > 0, \"Under five airlines, an airline without ownership cannot register other\");\n\n                airlines[airline] = Airline({\n                    isRegistered: true,\n                    account: airline,\n                    ownership: 0\n                    });\n\n                emit RegisterAirline(airline); \n            } else {\n                bool isDuplicate = false;\n                for(uint c=0; c<multiCalls.length; c++) {\n                    if (multiCalls[c] == msg.sender) {\n                        isDuplicate = true;\n                        break;\n                    }\n                }\n\n                require(!isDuplicate, \"This function was already called\");\n\n                multiCalls.push(msg.sender);\n                if (multiCalls.length >= (enabledAirlines.length.div(2))) {\n                    airlines[airline] = Airline({\n                        isRegistered: true,\n                        account: airline,\n                        ownership: 0\n                    });\n\n                    multiCalls = new address[](0);\n                    emit RegisterAirline(airline);\n                }\n            }\n        }\n    }\n\n    function registerFlight\n        (\n            address airline,\n            string flightId,\n            uint256 timestamp\n        )\n        external\n        requireIsCallerAuthorized\n        requireIsOperational\n    {\n\n        require(airlines[airline].isRegistered, \"Non-registered airline\");\n        flights[flightId] = Flight({\n            isRegistered: true,\n            statusCode: 0,\n            updatedTimestamp: timestamp,\n            airline: airline,\n            id: flightId,\n            hasBeenInsured: false\n        });\n\n        emit RegisterFlight(flightId);\n    }\n\n    function isAirline\n        (\n            address airline\n        )\n        external\n        view\n        requireIsCallerAuthorized\n        requireIsOperational\n        returns(bool)\n    {\n        return airlines[airline].isRegistered;\n    }\n\n    function getAirlineOwnership\n        (\n            address airline\n        )\n        external\n        view\n        requireIsCallerAuthorized\n        requireIsOperational\n        returns(uint256)\n    {\n        return airlines[airline].ownership;\n    }\n\n    function getActiveAirlines\n        (\n        )\n        external\n        view\n        requireIsCallerAuthorized\n        requireIsOperational\n        returns(address[])\n    {\n        return enabledAirlines;\n    }\n\n    function flightSuretyInfo\n        (\n            address passenger,\n            string flight\n        )\n        external\n        requireIsCallerAuthorized\n        requireIsOperational\n        returns(uint256)\n    {\n\n        bytes32 key = keccak256(abi.encodePacked(passenger, flight));\n        require(flightSurety[key] > 0, \"There are no suretyr for this flight and passenger\");\n        return flightSurety[key];\n    }\n\n\n   /**\n    * @dev Buy insurance for a flight\n    *\n    */   \n    function buy\n        (\n            address passenger,\n            string flight\n        )\n        external\n        payable\n        requireIsOperational\n    {\n        require(msg.value <= 1 ether, \"Maximum surety is 1 ether\");\n        bytes32 key = keccak256(abi.encodePacked(passenger, flight));\n        require(!flights[flight].hasBeenInsured, \"Surety was already paid\");\n        require(flightSurety[key] <= 0, \"Passenger already bought surety\");\n        flightSurety[key] = msg.value;\n    }\n\n    /**\n     *  @dev Credits payouts to insurees\n    */\n    function creditInsurees\n        (\n            address passenger,\n            string flight\n        )\n        external\n        payable\n        requireIsCallerAuthorized\n        requireIsOperational\n    {\n         bytes32 key = keccak256(abi.encodePacked(passenger, flight));\n        uint256 currentFund = flightSurety[key];\n        require(currentFund > 0, \"Nothing to refund\");\n        uint256 amountToCredit = currentFund.mul(15).div(10);\n        flightSurety[key] = amountToCredit;\n        emit CreditInsured(passenger, flight, amountToCredit);\n    }\n    \n\n    /**\n     *  @dev Transfers eligible payout funds to insuree\n     *\n    */\n    function withdraw\n        (\n            string flight,\n            uint256 amount\n        )\n        external\n        requireIsCallerAuthorized\n        requireIsOperational\n    {\n\n        bytes32 key = keccak256(abi.encodePacked(msg.sender, flight));\n        uint256 value = flightSurety[key];\n\n        require(value >= amount, \"Insufficient funds\");\n\n        flightSurety[key] = 0;\n        msg.sender.transfer(amount);\n        flightSurety[key] = value.sub(amount);\n    }\n\n   /**\n    * @dev Initial funding for the insurance. Unless there are too many delayed flights\n    *      resulting in insurance payouts, the contract should be self-sustaining\n    *\n    */   \n    function fund\n        (\n            address owner\n        )\n        public\n        payable\n        requireIsCallerAuthorized\n        requireIsOperational\n    {\n        require(msg.value >= 10, \"10 is the minimal amount\");\n        require(airlines[owner].isRegistered, \"Airline wasn't register\");\n\n        uint256 cacheAmount = funds[owner];\n        uint256 totalAmount = cacheAmount.add(msg.value);\n        funds[owner] = 0;\n        owner.transfer(totalAmount);\n\n        if (airlines[owner].ownership != 1) {\n            enabledAirlines.push(owner);\n        }\n\n        airlines[owner].ownership = 1;\n\n        funds[owner] = totalAmount;\n    }\n\n    /**\n    * @dev Fallback function for funding smart contract.\n    *\n    */\n    function() \n        external \n        payable \n        requireIsCallerAuthorized\n        requireIsOperational\n    {\n        fund(msg.sender);\n    }\n}",
  "sourcePath": "/Users/ruslanposevkin/Downloads/flight-surety/contracts/FlightSuretyData.sol",
  "compiler": {
    "name": "solc",
    "version": "0.4.25+commit.59dbf8f1.Emscripten.clang"
  },
  "schemaVersion": "3.0.1",
  "updatedAt": "2019-02-28T23:39:30.228Z",
  "devdoc": {
    "methods": {
      "buy(address,string)": {
        "details": "Buy insurance for a flight    "
      },
      "creditInsurees(address,string)": {
        "details": "Credits payouts to insurees"
      },
      "fund(address)": {
        "details": "Initial funding for the insurance. Unless there are too many delayed flights     resulting in insurance payouts, the contract should be self-sustaining    "
      },
      "isOperational()": {
        "details": "Get operating status of contract",
        "return": "A bool that is the current operating status"
      },
      "registerAirline(address,address)": {
        "details": "Add an airline to the registration queue     Can only be called from FlightSuretyApp contract    "
      },
      "setOperatingStatus(bool)": {
        "details": "Sets contract operations on/off    * When operational mode is disabled, all write transactions except for this one will fail"
      },
      "withdraw(string,uint256)": {
        "details": "Transfers eligible payout funds to insuree    "
      }
    }
  },
  "userdoc": {
    "methods": {
      "authorizeCaller(address)": {
        "notice": "*****************************************************************************************"
      }
    }
  }
}