{
  "contractName": "FlightSuretyData",
  "abi": [
    {
      "inputs": [],
      "payable": false,
      "stateMutability": "nonpayable",
      "type": "constructor",
      "signature": "constructor"
    },
    {
      "payable": true,
      "stateMutability": "payable",
      "type": "fallback"
    },
    {
      "anonymous": false,
      "inputs": [
        {
          "indexed": false,
          "name": "airlineAddress",
          "type": "address"
        }
      ],
      "name": "airlineRegistered",
      "type": "event",
      "signature": "0x2ef49f308764ebe6c1149ac59bf417810aa1d676e95227cc4638855c9eaf6c88"
    },
    {
      "anonymous": false,
      "inputs": [
        {
          "indexed": false,
          "name": "airlineAddress",
          "type": "address"
        }
      ],
      "name": "airlineFunded",
      "type": "event",
      "signature": "0x6a271d1fc1ff00cf80d9e67d144d2a4ea770a812df72ceed4f0083f76c568769"
    },
    {
      "anonymous": false,
      "inputs": [
        {
          "indexed": false,
          "name": "airline",
          "type": "address"
        },
        {
          "indexed": false,
          "name": "flight",
          "type": "string"
        },
        {
          "indexed": false,
          "name": "timestamp",
          "type": "uint256"
        },
        {
          "indexed": false,
          "name": "senderAddress",
          "type": "address"
        },
        {
          "indexed": false,
          "name": "insuranceAmount",
          "type": "uint256"
        }
      ],
      "name": "insurancePurchased",
      "type": "event",
      "signature": "0x2f5eaec89c448bc4325368dffdd31c08b8c499c39517098bc7f40bd7ded5dbc1"
    },
    {
      "anonymous": false,
      "inputs": [
        {
          "indexed": false,
          "name": "airline",
          "type": "address"
        },
        {
          "indexed": false,
          "name": "flight",
          "type": "string"
        },
        {
          "indexed": false,
          "name": "timestamp",
          "type": "uint256"
        },
        {
          "indexed": false,
          "name": "passenger",
          "type": "address"
        },
        {
          "indexed": false,
          "name": "amountCreditedToPassenger",
          "type": "uint256"
        }
      ],
      "name": "insuranceClaimed",
      "type": "event",
      "signature": "0x2818c3e0b02d5133bc40330d253069b2b6146dcaf3d449da257e7a895c36733e"
    },
    {
      "anonymous": false,
      "inputs": [
        {
          "indexed": false,
          "name": "senderAddress",
          "type": "address"
        },
        {
          "indexed": false,
          "name": "amount",
          "type": "uint256"
        }
      ],
      "name": "amountWithdrawn",
      "type": "event",
      "signature": "0xb2f5d4c0f2ba5229a12fd1382c4e4a7de3abb1a36c6e9f17e123d90a555b61b3"
    },
    {
      "constant": true,
      "inputs": [],
      "name": "isOperational",
      "outputs": [
        {
          "name": "",
          "type": "bool"
        }
      ],
      "payable": false,
      "stateMutability": "view",
      "type": "function",
      "signature": "0xcd905dff"
    },
    {
      "constant": false,
      "inputs": [
        {
          "name": "mode",
          "type": "bool"
        }
      ],
      "name": "setOperatingStatus",
      "outputs": [],
      "payable": false,
      "stateMutability": "nonpayable",
      "type": "function",
      "signature": "0x110466ed"
    },
    {
      "constant": true,
      "inputs": [
        {
          "name": "newAirline",
          "type": "address"
        }
      ],
      "name": "getAirlineVotes",
      "outputs": [
        {
          "name": "",
          "type": "address[]"
        }
      ],
      "payable": false,
      "stateMutability": "view",
      "type": "function",
      "signature": "0x6d47c815"
    },
    {
      "constant": false,
      "inputs": [
        {
          "name": "newAirline",
          "type": "address"
        },
        {
          "name": "senderAddress",
          "type": "address"
        }
      ],
      "name": "addAirlineVotes",
      "outputs": [
        {
          "name": "",
          "type": "address[]"
        }
      ],
      "payable": false,
      "stateMutability": "nonpayable",
      "type": "function",
      "signature": "0xe5829e37"
    },
    {
      "constant": true,
      "inputs": [
        {
          "name": "newAirline",
          "type": "address"
        },
        {
          "name": "senderAddress",
          "type": "address"
        }
      ],
      "name": "isAirlineVoted",
      "outputs": [
        {
          "name": "",
          "type": "bool"
        }
      ],
      "payable": false,
      "stateMutability": "view",
      "type": "function",
      "signature": "0xe3b7d37f"
    },
    {
      "constant": false,
      "inputs": [
        {
          "name": "newAirline",
          "type": "address"
        }
      ],
      "name": "registerAirline",
      "outputs": [],
      "payable": false,
      "stateMutability": "nonpayable",
      "type": "function",
      "signature": "0xbdfd9877"
    },
    {
      "constant": true,
      "inputs": [
        {
          "name": "newAirline",
          "type": "address"
        }
      ],
      "name": "isAirlineRegistered",
      "outputs": [
        {
          "name": "",
          "type": "bool"
        }
      ],
      "payable": false,
      "stateMutability": "view",
      "type": "function",
      "signature": "0x010c5c97"
    },
    {
      "constant": false,
      "inputs": [
        {
          "name": "airlineAddress",
          "type": "address"
        }
      ],
      "name": "activateAirline",
      "outputs": [],
      "payable": true,
      "stateMutability": "payable",
      "type": "function",
      "signature": "0x34ce6690"
    },
    {
      "constant": true,
      "inputs": [],
      "name": "getRegisteredAirlines",
      "outputs": [
        {
          "name": "",
          "type": "address[]"
        }
      ],
      "payable": false,
      "stateMutability": "view",
      "type": "function",
      "signature": "0xc23bcf09"
    },
    {
      "constant": true,
      "inputs": [],
      "name": "getActiveAirlines",
      "outputs": [
        {
          "name": "",
          "type": "address[]"
        }
      ],
      "payable": false,
      "stateMutability": "view",
      "type": "function",
      "signature": "0xfd4d02a4"
    },
    {
      "constant": true,
      "inputs": [
        {
          "name": "airlineAddress",
          "type": "address"
        }
      ],
      "name": "isAirlineActivated",
      "outputs": [
        {
          "name": "",
          "type": "bool"
        }
      ],
      "payable": false,
      "stateMutability": "view",
      "type": "function",
      "signature": "0x3ad3d6c4"
    },
    {
      "constant": false,
      "inputs": [
        {
          "name": "airline",
          "type": "address"
        },
        {
          "name": "flight",
          "type": "string"
        },
        {
          "name": "timestamp",
          "type": "uint256"
        },
        {
          "name": "passenger",
          "type": "address"
        },
        {
          "name": "insuranceAmount",
          "type": "uint256"
        }
      ],
      "name": "buyInsurance",
      "outputs": [],
      "payable": true,
      "stateMutability": "payable",
      "type": "function",
      "signature": "0x869d7b76"
    },
    {
      "constant": false,
      "inputs": [
        {
          "name": "airline",
          "type": "address"
        },
        {
          "name": "flight",
          "type": "string"
        },
        {
          "name": "timestamp",
          "type": "uint256"
        },
        {
          "name": "airlineAddress",
          "type": "address"
        },
        {
          "name": "passenger",
          "type": "address"
        }
      ],
      "name": "claimInsuranceAmount",
      "outputs": [],
      "payable": false,
      "stateMutability": "nonpayable",
      "type": "function",
      "signature": "0xb727bd21"
    },
    {
      "constant": false,
      "inputs": [
        {
          "name": "senderAddress",
          "type": "address"
        }
      ],
      "name": "withdrawAmount",
      "outputs": [],
      "payable": true,
      "stateMutability": "payable",
      "type": "function",
      "signature": "0x4f420151"
    },
    {
      "constant": false,
      "inputs": [
        {
          "name": "senderAddress",
          "type": "address"
        }
      ],
      "name": "fund",
      "outputs": [],
      "payable": true,
      "stateMutability": "payable",
      "type": "function",
      "signature": "0x23024408"
    }
  ],
  "bytecode": "0x60806040526001600060146101000a81548160ff02191690831515021790555034801561002b57600080fd5b50336000806101000a81548173ffffffffffffffffffffffffffffffffffffffff021916908373ffffffffffffffffffffffffffffffffffffffff16021790555060023390806001815401808255809150509060018203906000526020600020016000909192909190916101000a81548173ffffffffffffffffffffffffffffffffffffffff021916908373ffffffffffffffffffffffffffffffffffffffff160217905550506000600460003373ffffffffffffffffffffffffffffffffffffffff1673ffffffffffffffffffffffffffffffffffffffff16815260200190815260200160002060006101000a81548160ff02191690831515021790555060033390806001815401808255809150509060018203906000526020600020016000909192909190916101000a81548173ffffffffffffffffffffffffffffffffffffffff021916908373ffffffffffffffffffffffffffffffffffffffff1602179055505061225f8061019f6000396000f3006080604052600436106100db576000357c0100000000000000000000000000000000000000000000000000000000900463ffffffff168063010c5c97146100e6578063110466ed14610141578063230244081461017057806334ce6690146101a65780633ad3d6c4146101dc5780634f420151146102375780636d47c8151461026d578063869d7b7614610305578063b727bd2114610387578063bdfd98771461042c578063c23bcf091461046f578063cd905dff146104db578063e3b7d37f1461050a578063e5829e3714610585578063fd4d02a41461063d575b6100e4336106a9565b005b3480156100f257600080fd5b50610127600480360381019080803573ffffffffffffffffffffffffffffffffffffffff169060200190929190505050610741565b604051808215151515815260200191505060405180910390f35b34801561014d57600080fd5b5061016e600480360381019080803515159060200190929190505050610868565b005b6101a4600480360381019080803573ffffffffffffffffffffffffffffffffffffffff1690602001909291905050506106a9565b005b6101da600480360381019080803573ffffffffffffffffffffffffffffffffffffffff1690602001909291905050506109d4565b005b3480156101e857600080fd5b5061021d600480360381019080803573ffffffffffffffffffffffffffffffffffffffff169060200190929190505050610b85565b604051808215151515815260200191505060405180910390f35b61026b600480360381019080803573ffffffffffffffffffffffffffffffffffffffff169060200190929190505050610c5e565b005b34801561027957600080fd5b506102ae600480360381019080803573ffffffffffffffffffffffffffffffffffffffff169060200190929190505050610e79565b6040518080602001828103825283818151815260200191508051906020019060200280838360005b838110156102f15780820151818401526020810190506102d6565b505050509050019250505060405180910390f35b610385600480360381019080803573ffffffffffffffffffffffffffffffffffffffff16906020019092919080359060200190820180359060200191909192939192939080359060200190929190803573ffffffffffffffffffffffffffffffffffffffff16906020019092919080359060200190929190505050610fca565b005b34801561039357600080fd5b5061042a600480360381019080803573ffffffffffffffffffffffffffffffffffffffff16906020019092919080359060200190820180359060200191909192939192939080359060200190929190803573ffffffffffffffffffffffffffffffffffffffff169060200190929190803573ffffffffffffffffffffffffffffffffffffffff169060200190929190505050611398565b005b34801561043857600080fd5b5061046d600480360381019080803573ffffffffffffffffffffffffffffffffffffffff1690602001909291905050506119d8565b005b34801561047b57600080fd5b50610484611b80565b6040518080602001828103825283818151815260200191508051906020019060200280838360005b838110156104c75780820151818401526020810190506104ac565b505050509050019250505060405180910390f35b3480156104e757600080fd5b506104f0611c92565b604051808215151515815260200191505060405180910390f35b34801561051657600080fd5b5061056b600480360381019080803573ffffffffffffffffffffffffffffffffffffffff169060200190929190803573ffffffffffffffffffffffffffffffffffffffff169060200190929190505050611ca8565b604051808215151515815260200191505060405180910390f35b34801561059157600080fd5b506105e6600480360381019080803573ffffffffffffffffffffffffffffffffffffffff169060200190929190803573ffffffffffffffffffffffffffffffffffffffff169060200190929190505050611e4a565b6040518080602001828103825283818151815260200191508051906020019060200280838360005b8381101561062957808201518184015260208101905061060e565b505050509050019250505060405180910390f35b34801561064957600080fd5b50610652611f79565b6040518080602001828103825283818151815260200191508051906020019060200280838360005b8381101561069557808201518184015260208101905061067a565b505050509050019250505060405180910390f35b6106fb34600160008473ffffffffffffffffffffffffffffffffffffffff1673ffffffffffffffffffffffffffffffffffffffff1681526020019081526020016000205461208b90919063ffffffff16565b600160008373ffffffffffffffffffffffffffffffffffffffff1673ffffffffffffffffffffffffffffffffffffffff1681526020019081526020016000208190555050565b60008060008060149054906101000a900460ff1615156107c9576040517f08c379a000000000000000000000000000000000000000000000000000000000815260040180806020018281038252601a8152602001807f436f6e74726163742069736e2774206f7065726174696f6e616c00000000000081525060200191505060405180910390fd5b60009150600090505b60028054905081101561085e578373ffffffffffffffffffffffffffffffffffffffff1660028281548110151561080557fe5b9060005260206000200160009054906101000a900473ffffffffffffffffffffffffffffffffffffffff1673ffffffffffffffffffffffffffffffffffffffff16141561085157600191505b80806001019150506107d2565b8192505050919050565b6000809054906101000a900473ffffffffffffffffffffffffffffffffffffffff1673ffffffffffffffffffffffffffffffffffffffff163373ffffffffffffffffffffffffffffffffffffffff1614151561092c576040517f08c379a000000000000000000000000000000000000000000000000000000000815260040180806020018281038252601e8152602001807f43616c6c65722069736e2774206f776e6572206f6620636f6e7472616374000081525060200191505060405180910390fd5b600060149054906101000a900460ff161515811515141515156109b7576040517f08c379a000000000000000000000000000000000000000000000000000000000815260040180806020018281038252601c8152602001807f4e6577206d6f64652073686f756c6420626520646966666572656e740000000081525060200191505060405180910390fd5b80600060146101000a81548160ff02191690831515021790555050565b600060149054906101000a900460ff161515610a58576040517f08c379a000000000000000000000000000000000000000000000000000000000815260040180806020018281038252601a8152602001807f436f6e74726163742069736e2774206f7065726174696f6e616c00000000000081525060200191505060405180910390fd5b6001600460008373ffffffffffffffffffffffffffffffffffffffff1673ffffffffffffffffffffffffffffffffffffffff16815260200190815260200160002060006101000a81548160ff02191690831515021790555060038190806001815401808255809150509060018203906000526020600020016000909192909190916101000a81548173ffffffffffffffffffffffffffffffffffffffff021916908373ffffffffffffffffffffffffffffffffffffffff16021790555050610b1f816106a9565b7f6a271d1fc1ff00cf80d9e67d144d2a4ea770a812df72ceed4f0083f76c56876981604051808273ffffffffffffffffffffffffffffffffffffffff1673ffffffffffffffffffffffffffffffffffffffff16815260200191505060405180910390a150565b60008060149054906101000a900460ff161515610c0a576040517f08c379a000000000000000000000000000000000000000000000000000000000815260040180806020018281038252601a8152602001807f436f6e74726163742069736e2774206f7065726174696f6e616c00000000000081525060200191505060405180910390fd5b600460008373ffffffffffffffffffffffffffffffffffffffff1673ffffffffffffffffffffffffffffffffffffffff16815260200190815260200160002060009054906101000a900460ff169050919050565b600080600160008473ffffffffffffffffffffffffffffffffffffffff1673ffffffffffffffffffffffffffffffffffffffff16815260200190815260200160002054111515610d3c576040517f08c379a00000000000000000000000000000000000000000000000000000000081526004018080602001828103825260278152602001807f546865726520617265206e6f20656e6f75676874206361736820696e2074686581526020017f2077616c6c65740000000000000000000000000000000000000000000000000081525060400191505060405180910390fd5b600160008373ffffffffffffffffffffffffffffffffffffffff1673ffffffffffffffffffffffffffffffffffffffff1681526020019081526020016000205490506000600160008473ffffffffffffffffffffffffffffffffffffffff1673ffffffffffffffffffffffffffffffffffffffff168152602001908152602001600020819055508173ffffffffffffffffffffffffffffffffffffffff166108fc829081150290604051600060405180830381858888f19350505050158015610e09573d6000803e3d6000fd5b507fb2f5d4c0f2ba5229a12fd1382c4e4a7de3abb1a36c6e9f17e123d90a555b61b38282604051808373ffffffffffffffffffffffffffffffffffffffff1673ffffffffffffffffffffffffffffffffffffffff1681526020018281526020019250505060405180910390a15050565b6060600060149054906101000a900460ff161515610eff576040517f08c379a000000000000000000000000000000000000000000000000000000000815260040180806020018281038252601a8152602001807f436f6e74726163742069736e2774206f7065726174696f6e616c00000000000081525060200191505060405180910390fd5b600560008373ffffffffffffffffffffffffffffffffffffffff1673ffffffffffffffffffffffffffffffffffffffff168152602001908152602001600020805480602002602001604051908101604052809291908181526020018280548015610fbe57602002820191906000526020600020905b8160009054906101000a900473ffffffffffffffffffffffffffffffffffffffff1673ffffffffffffffffffffffffffffffffffffffff1681526020019060010190808311610f74575b50505050509050919050565b600080600060149054906101000a900460ff161515611051576040517f08c379a000000000000000000000000000000000000000000000000000000000815260040180806020018281038252601a8152602001807f436f6e74726163742069736e2774206f7065726174696f6e616c00000000000081525060200191505060405180910390fd5b61108e8888888080601f016020809104026020016040519081016040528093929190818152602001838380828437820191505050505050876120a7565b915081846040516020018083600019166000191681526020018273ffffffffffffffffffffffffffffffffffffffff1673ffffffffffffffffffffffffffffffffffffffff166c01000000000000000000000000028152601401925050506040516020818303038152906040526040518082805190602001908083835b602083101515611130578051825260208201915060208101905060208303925061110b565b6001836020036101000a03801982511681845116808217855250505050505090500191505060405180910390209050608060405190810160405280826000191681526020018573ffffffffffffffffffffffffffffffffffffffff168152602001848152602001600015158152506006600083600019166000191681526020019081526020016000206000820151816000019060001916905560208201518160010160006101000a81548173ffffffffffffffffffffffffffffffffffffffff021916908373ffffffffffffffffffffffffffffffffffffffff1602179055506040820151816002015560608201518160030160006101000a81548160ff0219169083151502179055509050506007600083600019166000191681526020019081526020016000208490806001815401808255809150509060018203906000526020600020016000909192909190916101000a81548173ffffffffffffffffffffffffffffffffffffffff021916908373ffffffffffffffffffffffffffffffffffffffff160217905550506112c5886106a9565b7f2f5eaec89c448bc4325368dffdd31c08b8c499c39517098bc7f40bd7ded5dbc1888888888888604051808773ffffffffffffffffffffffffffffffffffffffff1673ffffffffffffffffffffffffffffffffffffffff168152602001806020018581526020018473ffffffffffffffffffffffffffffffffffffffff1673ffffffffffffffffffffffffffffffffffffffff1681526020018381526020018281038252878782818152602001925080828437820191505097505050505050505060405180910390a15050505050505050565b600080600080600060149054906101000a900460ff161515611422576040517f08c379a000000000000000000000000000000000000000000000000000000000815260040180806020018281038252601a8152602001807f436f6e74726163742069736e2774206f7065726174696f6e616c00000000000081525060200191505060405180910390fd5b61145f8a8a8a8080601f016020809104026020016040519081016040528093929190818152602001838380828437820191505050505050896120a7565b935083856040516020018083600019166000191681526020018273ffffffffffffffffffffffffffffffffffffffff1673ffffffffffffffffffffffffffffffffffffffff166c01000000000000000000000000028152601401925050506040516020818303038152906040526040518082805190602001908083835b60208310151561150157805182526020820191506020810190506020830392506114dc565b6001836020036101000a03801982511681845116808217855250505050505090500191505060405180910390209250826000191660066000856000191660001916815260200190815260200160002060000154600019161415156115f3576040517f08c379a00000000000000000000000000000000000000000000000000000000081526004018080602001828103825260308152602001807f596f7520686176656e27742070757263686173656420696e737572616e63652081526020017f666f72207468697320666c696768742e0000000000000000000000000000000081525060400191505060405180910390fd5b60066000846000191660001916815260200190815260200160002060030160009054906101000a900460ff161515156116ba576040517f08c379a00000000000000000000000000000000000000000000000000000000081526004018080602001828103825260278152602001807f596f75206861766520616c726561647920636c61696d65642074686520696e7381526020017f7572616e63652e0000000000000000000000000000000000000000000000000081525060400191505060405180910390fd5b600160008773ffffffffffffffffffffffffffffffffffffffff1673ffffffffffffffffffffffffffffffffffffffff168152602001908152602001600020549150611741600a611733600f600660008860001916600019168152602001908152602001600020600201546121cc90919063ffffffff16565b61220490919063ffffffff16565b90508082101515156117e1576040517f08c379a00000000000000000000000000000000000000000000000000000000081526004018080602001828103825260228152602001807f4169726c696e6520646f65736e2774206861766520656e6f7567682066756e6481526020017f732e00000000000000000000000000000000000000000000000000000000000081525060400191505060405180910390fd5b600160066000856000191660001916815260200190815260200160002060030160006101000a81548160ff02191690831515021790555061182b818361221a90919063ffffffff16565b600160008873ffffffffffffffffffffffffffffffffffffffff1673ffffffffffffffffffffffffffffffffffffffff168152602001908152602001600020819055506118c081600160008873ffffffffffffffffffffffffffffffffffffffff1673ffffffffffffffffffffffffffffffffffffffff1681526020019081526020016000205461208b90919063ffffffff16565b600160008773ffffffffffffffffffffffffffffffffffffffff1673ffffffffffffffffffffffffffffffffffffffff168152602001908152602001600020819055507f2818c3e0b02d5133bc40330d253069b2b6146dcaf3d449da257e7a895c36733e8a8a8a8a8986604051808773ffffffffffffffffffffffffffffffffffffffff1673ffffffffffffffffffffffffffffffffffffffff168152602001806020018581526020018473ffffffffffffffffffffffffffffffffffffffff1673ffffffffffffffffffffffffffffffffffffffff1681526020018381526020018281038252878782818152602001925080828437820191505097505050505050505060405180910390a150505050505050505050565b600060149054906101000a900460ff161515611a5c576040517f08c379a000000000000000000000000000000000000000000000000000000000815260040180806020018281038252601a8152602001807f436f6e74726163742069736e2774206f7065726174696f6e616c00000000000081525060200191505060405180910390fd5b60028190806001815401808255809150509060018203906000526020600020016000909192909190916101000a81548173ffffffffffffffffffffffffffffffffffffffff021916908373ffffffffffffffffffffffffffffffffffffffff160217905550506000600460008373ffffffffffffffffffffffffffffffffffffffff1673ffffffffffffffffffffffffffffffffffffffff16815260200190815260200160002060006101000a81548160ff0219169083151502179055507f2ef49f308764ebe6c1149ac59bf417810aa1d676e95227cc4638855c9eaf6c8881604051808273ffffffffffffffffffffffffffffffffffffffff1673ffffffffffffffffffffffffffffffffffffffff16815260200191505060405180910390a150565b6060600060149054906101000a900460ff161515611c06576040517f08c379a000000000000000000000000000000000000000000000000000000000815260040180806020018281038252601a8152602001807f436f6e74726163742069736e2774206f7065726174696f6e616c00000000000081525060200191505060405180910390fd5b6002805480602002602001604051908101604052809291908181526020018280548015611c8857602002820191906000526020600020905b8160009054906101000a900473ffffffffffffffffffffffffffffffffffffffff1673ffffffffffffffffffffffffffffffffffffffff1681526020019060010190808311611c3e575b5050505050905090565b60008060149054906101000a900460ff16905090565b60008060008060149054906101000a900460ff161515611d30576040517f08c379a000000000000000000000000000000000000000000000000000000000815260040180806020018281038252601a8152602001807f436f6e74726163742069736e2774206f7065726174696f6e616c00000000000081525060200191505060405180910390fd5b60009150600090505b600560008673ffffffffffffffffffffffffffffffffffffffff1673ffffffffffffffffffffffffffffffffffffffff16815260200190815260200160002080549050811015611e3f578373ffffffffffffffffffffffffffffffffffffffff16600560008773ffffffffffffffffffffffffffffffffffffffff1673ffffffffffffffffffffffffffffffffffffffff16815260200190815260200160002082815481101515611de657fe5b9060005260206000200160009054906101000a900473ffffffffffffffffffffffffffffffffffffffff1673ffffffffffffffffffffffffffffffffffffffff161415611e3257600191505b8080600101915050611d39565b819250505092915050565b6060600060149054906101000a900460ff161515611ed0576040517f08c379a000000000000000000000000000000000000000000000000000000000815260040180806020018281038252601a8152602001807f436f6e74726163742069736e2774206f7065726174696f6e616c00000000000081525060200191505060405180910390fd5b600560008473ffffffffffffffffffffffffffffffffffffffff1673ffffffffffffffffffffffffffffffffffffffff1681526020019081526020016000208290806001815401808255809150509060018203906000526020600020016000909192909190916101000a81548173ffffffffffffffffffffffffffffffffffffffff021916908373ffffffffffffffffffffffffffffffffffffffff1602179055505092915050565b6060600060149054906101000a900460ff161515611fff576040517f08c379a000000000000000000000000000000000000000000000000000000000815260040180806020018281038252601a8152602001807f436f6e74726163742069736e2774206f7065726174696f6e616c00000000000081525060200191505060405180910390fd5b600380548060200260200160405190810160405280929190818152602001828054801561208157602002820191906000526020600020905b8160009054906101000a900473ffffffffffffffffffffffffffffffffffffffff1673ffffffffffffffffffffffffffffffffffffffff1681526020019060010190808311612037575b5050505050905090565b6000818301905082811015151561209e57fe5b80905092915050565b6000838383604051602001808473ffffffffffffffffffffffffffffffffffffffff1673ffffffffffffffffffffffffffffffffffffffff166c0100000000000000000000000002815260140183805190602001908083835b6020831015156121255780518252602082019150602081019050602083039250612100565b6001836020036101000a03801982511681845116808217855250505050505090500182815260200193505050506040516020818303038152906040526040518082805190602001908083835b6020831015156121965780518252602082019150602081019050602083039250612171565b6001836020036101000a038019825116818451168082178552505050505050905001915050604051809103902090509392505050565b6000808314156121df57600090506121fe565b81830290508183828115156121f057fe5b041415156121fa57fe5b8090505b92915050565b6000818381151561221157fe5b04905092915050565b600082821115151561222857fe5b8183039050929150505600a165627a7a723058204c3daaf307e09e7661073d4cd0a73c4b1c330c9d4d8ed70576f6d39c48eb9f860029",
  "source": "pragma solidity ^0.4.24;\n\nimport \"../node_modules/openzeppelin-solidity/contracts/math/SafeMath.sol\";\n\ncontract FlightSuretyData {\n    using SafeMath for uint256;\n\n    address private contractOwner;\n    bool private operational = true;\n    mapping(address => uint256) private walletBalance;\n    address[] private airlines;\n    address[] private activeAirlines;\n    mapping(address => bool) private activatedAirlines;\n    mapping(address => address[]) private airlineVotes;\n    mapping(bytes32 => Insurance) private flightInsuranceDetails;\n    mapping(bytes32 => address[]) private flightInsurances;\n\n    struct Insurance {\n        bytes32 id;\n        address owner;\n        uint256 amount;\n        bool isRefunded;\n    }\n\n    event airlineRegistered(address airlineAddress);\n    event airlineFunded(address airlineAddress);\n    event insurancePurchased(address airline, string flight, uint256 timestamp, address senderAddress, uint256 insuranceAmount);\n    event insuranceClaimed(address airline, string flight, uint256 timestamp, address passenger, uint256 amountCreditedToPassenger);\n    event amountWithdrawn(address senderAddress, uint amount);\n\n    constructor() public {\n        contractOwner = msg.sender;\n        airlines.push(msg.sender);\n        activatedAirlines[msg.sender] = false;\n        activeAirlines.push(msg.sender);\n    }\n\n    modifier requireContractOwner() {\n        require(msg.sender == contractOwner, \"Caller isn't owner of contract\");\n        _;\n    }\n\n    modifier requireIsOperational() {\n        require(operational, \"Contract isn't operational\");\n        _;\n    }\n\n\n    function isOperational() external view returns (bool) {\n        return operational;\n    }\n\n    function setOperatingStatus(bool mode) external requireContractOwner {\n        require(mode != operational, \"New mode should be different\");\n        operational = mode;\n    }\n\n    function getAirlineVotes(address newAirline) external view requireIsOperational returns(address[]) {\n        return airlineVotes[newAirline];\n    }\n\n    function addAirlineVotes(address newAirline, address senderAddress) external requireIsOperational returns(address[]) {\n        airlineVotes[newAirline].push(senderAddress);\n    }\n\n    function isAirlineVoted(address newAirline, address senderAddress) external view requireIsOperational returns (bool) {\n        bool isAlreadyVoted = false;\n        for(uint i = 0; i < airlineVotes[newAirline].length; i++) {\n            if(airlineVotes[newAirline][i] == senderAddress) {\n                isAlreadyVoted = true;\n            }\n        }\n        return isAlreadyVoted;\n    }\n\n    function registerAirline(address newAirline) external requireIsOperational {\n        airlines.push(newAirline);\n        activatedAirlines[newAirline] = false;\n        emit airlineRegistered(newAirline);\n    }\n\n    function isAirlineRegistered(address newAirline) external view requireIsOperational returns(bool) {\n        bool isRegistered = false;\n        for(uint i = 0; i < airlines.length; i++) {\n            if(airlines[i] == newAirline) {\n                isRegistered = true;\n            }\n        }\n        return isRegistered;\n    }\n\n    function activateAirline(address airlineAddress) external payable requireIsOperational {\n        activatedAirlines[airlineAddress] = true;\n        activeAirlines.push(airlineAddress);\n        fund(airlineAddress);\n        emit airlineFunded(airlineAddress);\n    }\n\n    function getRegisteredAirlines() external view requireIsOperational returns(address[]) {\n        return airlines;\n    }\n\n    function getActiveAirlines() external view requireIsOperational returns(address[]) {\n        return activeAirlines;\n    }\n\n    function isAirlineActivated(address airlineAddress) external view requireIsOperational returns(bool) {\n        return activatedAirlines[airlineAddress];\n    }\n\n    function buyInsurance(address airline, string flight, uint256 timestamp, address passenger, uint256 insuranceAmount) external payable requireIsOperational {\n        bytes32 flightKey = getFlightKey(airline, flight, timestamp);\n        bytes32 insuranceKey = keccak256(abi.encodePacked(flightKey, passenger));\n        flightInsuranceDetails[insuranceKey] = Insurance({\n            id: insuranceKey,\n            owner: passenger,\n            amount: insuranceAmount,\n            isRefunded: false\n        });\n        flightInsurances[flightKey].push(passenger);\n        fund(airline);\n        emit insurancePurchased(airline, flight, timestamp, passenger, insuranceAmount);\n    }\n\n    function claimInsuranceAmount(address airline, string flight, uint256 timestamp, address airlineAddress, address passenger) external requireIsOperational {\n        bytes32 flightKey = getFlightKey(airline, flight, timestamp);\n        bytes32 insuranceKey = keccak256(abi.encodePacked(flightKey, passenger));\n        require(flightInsuranceDetails[insuranceKey].id == insuranceKey, \"You haven't purchased insurance for this flight.\");\n        require(!flightInsuranceDetails[insuranceKey].isRefunded, \"You have already claimed the insurance.\");\n        uint256 currentAirlineBalance = walletBalance[airlineAddress];\n        uint256 amountCreditedToPassenger = flightInsuranceDetails[insuranceKey].amount.mul(15).div(10);\n        require(currentAirlineBalance >= amountCreditedToPassenger, \"Airline doesn't have enough funds.\");\n        flightInsuranceDetails[insuranceKey].isRefunded = true;\n        walletBalance[airlineAddress] = currentAirlineBalance.sub(amountCreditedToPassenger);\n        walletBalance[passenger] = walletBalance[passenger].add(amountCreditedToPassenger);\n        emit insuranceClaimed(airline, flight, timestamp, passenger, amountCreditedToPassenger);\n    }\n\n    function withdrawAmount(address senderAddress) external payable {\n        require(walletBalance[senderAddress] > 0, \"There are no enought cash in the wallet\");\n        uint256 withdrawAmount = walletBalance[senderAddress];\n        walletBalance[senderAddress] = 0;\n        senderAddress.transfer(withdrawAmount);\n        emit amountWithdrawn(senderAddress, withdrawAmount);\n    }\n\n    function fund(address senderAddress) public payable {\n        walletBalance[senderAddress] = walletBalance[senderAddress].add(msg.value);\n    }\n\n    function getFlightKey(address airline, string memory flight, uint256 timestamp) pure internal returns (bytes32) {\n        return keccak256(abi.encodePacked(airline, flight, timestamp));\n    }\n\n    function() external payable {\n        fund(msg.sender);\n    }\n}",
  "sourcePath": "/Users/ruslanposevkin/Downloads/flight-surety/contracts/FlightSuretyData.sol",
  "compiler": {
    "name": "solc",
    "version": "0.4.25+commit.59dbf8f1.Emscripten.clang"
  },
  "schemaVersion": "3.0.1",
  "updatedAt": "2019-03-04T00:39:59.936Z",
  "devdoc": {
    "methods": {}
  },
  "userdoc": {
    "methods": {}
  }
}